:020000040800F2
:1000000000000220B94B0008A54A0008AB4A0008CE
:10001000B14A0008B74A0008BD4A000800000000C5
:1000200000000000000000000000000011C60008F1
:10003000C34A00080000000061C80008D14A000857
:10004000094C0008094C0008094C0008094C00083C
:10005000094C0008094C0008094C0008094C00082C
:10006000094C0008094C0008094C0008094C00081C
:10007000ED4A0008094C0008094C0008094C00082A
:10008000094C0008094C0008094C0008094C0008FC
:10009000094C0008094C0008094C0008094C0008EC
:1000A000094C0008094C0008094C0008094C0008DC
:1000B000094C0008094C0008014B0008094C0008D5
:1000C000094C0008094C0008094C0008094C0008BC
:1000D000094C0008094C0008094C0008154B0008A1
:1000E000094C0008094C0008094C0008094C00089C
:1000F000094C0008094C0008094C0008094C00088C
:10010000094C0008094C0008094C0008094C00087B
:10011000094C0008094C0008094C0008094C00086B
:10012000094C0008094C0008094C0008094C00085B
:10013000094C0008094C0008094C0008094C00084B
:10014000094C0008094C0008094C0008094C00083B
:10015000094C0008094C0008094C0008094C00082B
:10016000094C0008094C0008094C0008094C00081B
:10017000094C0008094C0008094C00080000000068
:08018000094C0008094C0008BD
:1001900010B5054C237833B9044B13B10448AFF3C1
:1001A00000800123237010BD980000200000000093
:1001B00014D7000808B5034B1BB103490348AFF33C
:1001C000008008BD000000009C00002014D700083B
:1001D000034613F8012B002AFBD1181A0138704787
:1001E00001F0FF01102A2BDB10F0070F08D010F8E8
:1001F000013B013A8B422DD010F0070F42B3F6D1EC
:10020000F0B441EA012141EA014122F007047FF004
:1002100000070023F0E80256083C85EA010586EA5B
:10022000010685FA47F5A3FA87F586FA47F6A5FA97
:1002300087F68EB9EED1F0BC01F0FF0102F00702A3
:1002400032B110F8013B013A83EA010313B1F8D14E
:100250000020704701387047002D06BF354603382F
:10026000073815F0010F07D1013015F4807F02BF68
:10027000013015F4C03F0130F0BC0138704700BFB9
:1002800081F0004102E000BF83F0004330B54FEA47
:1002900041044FEA430594EA050F08BF90EA020FB4
:1002A0001FBF54EA000C55EA020C7FEA645C7FEA47
:1002B000655C00F0E2804FEA5454D4EB5555B8BF6A
:1002C0006D420CDD2C4480EA020281EA030382EADB
:1002D000000083EA010180EA020281EA0303362D6D
:1002E00088BF30BD11F0004F4FEA01314FF4801C40
:1002F0004CEA113102D0404261EB410113F0004F52
:100300004FEA03334CEA133302D0524263EB430308
:1003100094EA050F00F0A780A4F10104D5F1200EA6
:100320000DDB02FA0EFC22FA05F2801841F1000101
:1003300003FA0EF2801843FA05F359410EE0A5F1D5
:1003400020050EF1200E012A03FA0EFC28BF4CF006
:10035000020C43FA05F3C01851EBE37101F00045BC
:1003600007D54FF0000EDCF1000C7EEB00006EEBC9
:100370000101B1F5801F1BD3B1F5001F0CD3490853
:100380005FEA30004FEA3C0C04F101044FEA4452AA
:1003900012F5800F80F09A80BCF1004F08BF5FEA31
:1003A000500C50F1000041EB045141EA050130BD11
:1003B0005FEA4C0C404141EB0101013C28BFB1F523
:1003C000801FE9D291F0000F04BF01460020B1FA6E
:1003D00081F308BF2033A3F10B03B3F120020CDA41
:1003E0000C3208DD02F1140CC2F10C0201FA0CF01F
:1003F00021FA02F10CE002F11402D8BFC2F1200C84
:1004000001FA02F120FA0CFCDCBF41EA0C01904039
:10041000E41AA2BF01EB0451294330BD6FEA040482
:100420001F3C1CDA0C340EDC04F11404C4F120026D
:1004300020FA04F001FA02F340EA030021FA04F37F
:1004400045EA030130BDC4F10C04C4F1200220FAD6
:1004500002F001FA04F340EA0300294630BD21FA14
:1004600004F0294630BD94F0000F83F4801306BFDA
:1004700081F480110134013D4EE77FEA645C18BFCE
:100480007FEA655C29D094EA050F08BF90EA020F65
:1004900005D054EA000C04BF1946104630BD91EA5D
:1004A000030F1EBF0021002030BD5FEA545C05D160
:1004B0004000494128BF41F0004130BD14F580049F
:1004C0003CBF01F5801130BD01F0004545F0FE4113
:1004D00041F470014FF0000030BD7FEA645C1ABF48
:1004E000194610467FEA655C1CBF0B46024650EA7F
:1004F000013406BF52EA033591EA030F41F40021AB
:1005000030BD00BF90F0000F04BF0021704730B530
:100510004FF4806404F132044FF000054FF0000105
:1005200050E700BF90F0000F04BF0021704730B5C6
:100530004FF4806404F1320410F0004548BF40429B
:100540004FF000013EE700BF42004FEAE2014FEAF0
:1005500031014FEA02701FBF12F07F4393F07F4FCB
:1005600081F06051704732F07F4208BF704793F0CE
:100570007F4F04BF41F40021704730B54FF46074E1
:1005800001F0004521F000411CE700BF50EA0102E4
:1005900008BF704730B54FF000050AE050EA01028D
:1005A00008BF704730B511F0004502D5404261EBFD
:1005B00041014FF4806404F132045FEA915C3FF43E
:1005C000D8AE4FF003025FEADC0C18BF03325FEADB
:1005D000DC0C18BF033202EBDC02C2F1200300FA8C
:1005E00003FC20FA02F001FA03FE40EA0E0021FAB1
:1005F00002F11444BDE600BF70B54FF0FF0C4CF49F
:10060000E06C1CEA11541DBF1CEA135594EA0C0F50
:1006100095EA0C0F00F0DEF82C4481EA030621EA8B
:100620004C5123EA4C5350EA013518BF52EA0335C6
:1006300041F4801143F4801338D0A0FB02CE4FF078
:100640000005E1FB02E506F00042E0FB03E54FF0A8
:100650000006E1FB03569CF0000F18BF4EF0010EA0
:10066000A4F1FF04B6F5007F64F5407404D25FEA9C
:100670004E0E6D4146EB060642EAC62141EA55514F
:100680004FEAC52040EA5E504FEACE2EB4F1FD0C91
:1006900088BFBCF5E06F1ED8BEF1004F08BF5FEA0F
:1006A000500E50F1000041EB045170BD06F00046C1
:1006B00046EA010140EA020081EA0301B4EB5C046E
:1006C000C2BFD4EB0C0541EA045170BD41F4801166
:1006D0004FF0000E013C00F3AB8014F1360FDEBF8B
:1006E000002001F0004170BDC4F10004203C35DA67
:1006F0000C341BDC04F11404C4F1200500FA05F3EA
:1007000020FA04F001FA05F240EA020001F000428A
:1007100021F0004110EBD37021FA04F642EB060100
:100720005EEA430E08BF20EAD37070BDC4F10C042A
:10073000C4F1200500FA04F320FA05F001FA04F2EE
:1007400040EA020001F0004110EBD37041F10001DA
:100750005EEA430E08BF20EAD37070BDC4F12005E5
:1007600000FA05F24EEA020E20FA04F301FA05F24D
:1007700043EA020321FA04F001F0004121FA04F2F5
:1007800020EA020000EBD3705EEA430E08BF20EAC5
:10079000D37070BD94F0000F0FD101F000464000FF
:1007A00041EB010111F4801F08BF013CF7D041EA81
:1007B000060195F0000F18BF704703F00046520085
:1007C00043EB030313F4801F08BF013DF7D043EA56
:1007D0000603704794EA0C0F0CEA135518BF95EA0C
:1007E0000C0F0CD050EA410618BF52EA4306D1D193
:1007F00081EA030101F000414FF0000070BD50EAB2
:10080000410606BF1046194652EA430619D094EA3B
:100810000C0F02D150EA013613D195EA0C0F05D125
:1008200052EA03361CBF104619460AD181EA030179
:1008300001F0004141F0FE4141F470014FF0000031
:1008400070BD41F0FE4141F4780170BD70B54FF0CC
:10085000FF0C4CF4E06C1CEA11541DBF1CEA13554C
:1008600094EA0C0F95EA0C0F00F0A7F8A4EB05042E
:1008700081EA030E52EA03354FEA013100F0888025
:100880004FEA03334FF0805545EA131343EA1263EE
:100890004FEA022245EA111545EA10654FEA0026A3
:1008A0000EF000419D4208BF964244F1FD0404F55C
:1008B000407402D25B084FEA3202B61A65EB0305B8
:1008C0005B084FEA32024FF480104FF4002CB6EB75
:1008D000020E75EB030E22BFB61A754640EA0C00F5
:1008E0005B084FEA3202B6EB020E75EB030E22BF35
:1008F000B61A754640EA5C005B084FEA3202B6EB76
:10090000020E75EB030E22BFB61A754640EA9C0034
:100910005B084FEA3202B6EB020E75EB030E22BF04
:10092000B61A754640EADC0055EA060E18D04FEAC2
:10093000051545EA16754FEA06164FEAC30343EA62
:1009400052734FEAC2025FEA1C1CC0D111F4801F2F
:100950000BD141EA00014FF000004FF0004CB6E728
:1009600011F4801F04BF01430020B4F1FD0C88BFC7
:10097000BCF5E06F3FF6AFAEB5EB030C04BFB6EBD2
:10098000020C5FEA500C50F1000041EB045170BDC5
:100990000EF0004E4EEA113114EB5C04C2BFD4EBF2
:1009A0000C0541EA045170BD41F480114FF0000E76
:1009B000013C90E645EA060E8DE60CEA135594EAF2
:1009C0000C0F08BF95EA0C0F3FF43BAF94EA0C0FF5
:1009D0000AD150EA01347FF434AF95EA0C0F7FF46A
:1009E00025AF104619462CE795EA0C0F06D152EABE
:1009F00003353FF4FDAE1046194622E750EA4106A2
:100A000018BF52EA43067FF4C5AE50EA41047FF4B2
:100A10000DAF52EA43057FF4EBAE12E74FF0FF3C17
:100A200006E000BF4FF0010C02E000BF4FF0010CE8
:100A30004DF804CD4FEA410C7FEA6C5C4FEA430C61
:100A400018BF7FEA6C5C1BD001B050EA410C0CBFB0
:100A500052EA430C91EA030F02BF90EA020F002012
:100A6000704710F1000F91EA030F58BF994208BF79
:100A700090422CBFD8176FEAE37040F00100704736
:100A80004FEA410C7FEA6C5C02D150EA013C07D18D
:100A90004FEA430C7FEA6C5CD6D152EA033CD3D0D8
:100AA0005DF8040B704700BF8446104662468C46D2
:100AB0001946634600E000BF01B5FFF7B7FF002805
:100AC00048BF10F1000F01BD4DF808EDFFF7F4FF2E
:100AD0000CBF012000205DF808FB00BF4DF808EDB9
:100AE000FFF7EAFF34BF012000205DF808FB00BFDC
:100AF0004DF808EDFFF7E0FF94BF012000205DF8FE
:100B000008FB00BF4DF808EDFFF7CEFF94BF0120B2
:100B100000205DF808FB00BF4DF808EDFFF7C4FFAB
:100B200034BF012000205DF808FB00BF4FEA4102FE
:100B300012F5001215D211D56FF47873B3EB62522F
:100B400012D94FEAC12343F0004343EA505311F056
:100B5000004F23FA02F018BF404270474FF00000E8
:100B6000704750EA013005D111F0004008BF6FF026
:100B7000004070474FF00000704700BF4A0011D29C
:100B800012F5001211D20DD56FF47873B3EB6252E7
:100B90000ED44FEAC12343F0004343EA505323FAF3
:100BA00002F070474FF00000704750EA013002D168
:100BB0004FF0FF3070474FF0000070474FEA41029E
:100BC000B2F1E04324BFB3F5001CDCF1FE5C0DD9AB
:100BD00001F0004C4FEAC0024CEA5070B2F1004FF5
:100BE00040EB830008BF20F00100704711F0804FF8
:100BF00021D113F13872BCBF01F00040704741F4BD
:100C000080114FEA5252C2F11802C2F1200C10FAC0
:100C10000CF320FA02F018BF40F001004FEAC123A4
:100C20004FEAD32303FA0CFC40EA0C0023FA02F348
:100C30004FEA4303CCE77FEA625307D150EA01331E
:100C40001EBF4FF0FE4040F44000704701F00040EE
:100C500040F0FE4040F40000704700BF53B94AB96D
:100C6000002908BF00281CBF4FF0FF314FF0FF30B4
:100C700000F070B9ADF1080C6DE904CE00F006F893
:100C8000DDF804E0DDE9022304B070472DE9F04708
:100C9000089E0D4604460F46002B4AD18A429446D0
:100CA00065D9B2FA82F343B102FA03FCC3F1200220
:100CB0009F4020FA02F217439C404FEA1C4E1FFA55
:100CC0008CF5B7FBFEF1220C0EFB117742EA0742CE
:100CD00001FB05F090420AD91CEB020201F1FF373B
:100CE00080F01C81904240F2198102396244121A4C
:100CF000A4B2B2FBFEF00EFB102244EA024400FB59
:100D000005F5A5420AD91CEB040400F1FF3280F07E
:100D10000781A54240F204816444023840EA014060
:100D2000641B00211EB1DC400023C6E90043BDE87E
:100D3000F0878B4208D9002E00F0ED800021C6E933
:100D400000050846BDE8F087B3FA83F1002949D1D0
:100D5000AB4202D3824200F2F880841A65EB0302B0
:100D600001201746002EE2D0C6E90047DFE702B9AE
:100D7000FFDEB2FA82F3002B40F090808A1A4FEA2D
:100D80001C471FFA8CFE0121B2FBF7F507FB15206B
:100D9000220C42EA00420EFB05F0904208D91CEBFF
:100DA000020205F1FF3802D2904200F2CB804546A4
:100DB000121AA4B2B2FBF7F007FB102244EA024475
:100DC0000EFB00FEA64508D91CEB040400F1FF321F
:100DD00002D2A64500F2BB801046A4EB0E0440EA06
:100DE00005409FE7C1F120078B4022FA07FC4CEA3F
:100DF000030C05FA01F420FA07F3FD404FEA1C4901
:100E00002343B5FBF9F81FFA8CFE09FB18551C0C9F
:100E100044EA054408FB0EF5A54202FA01F200FA85
:100E200001F00BD91CEB040408F1FF3A80F0888034
:100E3000A54240F28580A8F102086444641B9DB27B
:100E4000B4FBF9F309FB134445EA044403FB0EFE2B
:100E5000A64508D91CEB040403F1FF356CD2A64566
:100E60006AD9023B644443EA0843A3FB0295A4EB1E
:100E70000E04AC42C846AE4656D353D056B1B0EB82
:100E8000080264EB0E0404FA07F7CA40CC4017438B
:100E9000C6E9007418460021BDE8F087C3F12001BF
:100EA00002FA03FC20FA01F225FA01F19D402A43DF
:100EB0004FEA1C471FFA8CFEB1FBF7F007FB101539
:100EC000110C41EA054100FB0EF58D4204FA03F4D2
:100ED00008D91CEB010100F1FF382FD28D422DD92A
:100EE00002386144491B92B2B1FBF7F507FB1511BB
:100EF00042EA014205FB0EF1914208D91CEB0202C5
:100F000005F1FF3816D2914214D9023D6244521ABB
:100F100045EA004138E73146304608E73946E6E61B
:100F20001046FBE64845A9D2B9EB020865EB0C0E6A
:100F3000013BA3E74546EAE72B4694E74046D1E765
:100F4000D0467BE7023D624432E708460AE7644444
:100F5000023842E7704700BFB0B58CB000AFF86010
:100F6000B9607A60AD4B07F118041D460FCD0FC470
:100F70002B68237007F1290300221A809A70FB68FE
:100F8000BA681A60FB687A685A6000227F21F868A4
:100F900000F0BAF903461A46A14B1A70A04B1B7811
:100FA000002B07D007F118039E4A07CA03C31A8013
:100FB00000239AE1002107F117031A46F86800F0B0
:100FC000C3F903461A46964B1A70954B1B78002BB3
:100FD00007D007F11803944A07CA03C31A800023F5
:100FE00083E1FB7D1A4607F12C03904918460BF06C
:100FF000E5FE07F12C0207F11803114618460BF025
:1010000031FF3B7E203BDBB287F824307B7E203BE8
:10101000DBB287F825300D2387F826300A2387F8BE
:101020002730002387F828300D233B760A237B7670
:101030004923BB76FB685C6807F118031846FFF785
:10104000C7F803469AB207F118014FF0FF33204664
:1010500007F0CDFE00227F21F86800F055F9034625
:101060001A466F4B1A706E4B1B78002B07D007F196
:1010700018036F4A07CA03C31A80002335E1F1221F
:101080000621F86800F040F903461A46644B1A70CE
:10109000634B1B78002B0AD007F11803654A07CA77
:1010A00003C31A800233120C1A7000231DE10A20B8
:1010B00003F01EFE01220621F86800F025F9034620
:1010C0001A46574B1A70564B1B78002B0AD007F163
:1010D0001803594A07CA03C31A800233120C1A7044
:1010E000002302E10A2003F003FE3F220721F868F3
:1010F00000F00AF903461A46494B1A70484B1B7810
:10110000002B0AD007F118034C4A07CA03C31A8000
:101110000233120C1A700023E7E00A2003F0E8FD06
:1011200000220721F86800F0EFF803461A463C4B0E
:101130001A703B4B1B78002B0AD007F11803404A6A
:1011400007CA03C31A800233120C1A700023CCE0C2
:1011500001221021F86800F0D7F803461A46304BF8
:101160001A7020227F21F86800F0CEF803461A4654
:101170002B4B1A702A4B1B78002B07D007F1180352
:10118000304A07CA03C31A800023AEE004220021BC
:10119000F86800F0B9F803461A46214B1A70204B44
:1011A0001B78002B07D007F11803274A07CA03C38F
:1011B0001A80002399E033220121F86800F0A4F896
:1011C00003461A46164B1A70154B1B78002B07D096
:1011D00007F118031D4A07CA03C31A80002384E0DD
:1011E00007221121F86800F08FF803461A460C4BCD
:1011F0001A7000221021F86800F086F803461A469B
:10120000074B1A70064B1B78002B23D007F11803ED
:101210000F4A07CA03C31A80002366E0CCD7000830
:10122000B40000202CD7000838D7000844D70008A5
:1012300048D7000854D7000860D700086CD70008CA
:1012400078D7000884D7000890D700089CD70008FA
:10125000A8D7000831221421F86800F055F8034699
:101260001A46244B1A70234B1B78002B0AD007F127
:101270001803214A07CA03C31A800233120C1A70DA
:10128000002332E000225321F86800F03DF80022EC
:101290007F21F86800F038F803461A46154B1A709B
:1012A000144B1B78002B0AD007F11803134A07CA06
:1012B00003C31A800233120C1A70002315E0642055
:1012C00003F016FD0E4B00221A600D4B00225A60EF
:1012D0000B4B00229A600B4B00221A60094B002234
:1012E0005A60084B00229A60002318463037BD46EA
:1012F000B0BD00BFB4000020B4D70008C0D70008BC
:10130000BC000020C800002080B588B004AF786021
:101310000B46FB701346BB70BB78FB737B68186889
:10132000D02399B2FB789AB24FF0FF330293012396
:10133000019307F10F030093012304F03DFD0346E1
:1013400018461037BD4680BD80B588B004AFF86040
:101350000B467A60FB72FB681868D02399B2FB7A5F
:101360009AB24FF0FF330293012301937B680093FD
:10137000012304F01BFE03461A46044B1A70034B6C
:101380001B7818461037BD4680BD00BFB400002052
:10139000B0B58CB000AF78600023BB810023FB6147
:1013A0000023BB6107F10C031A4638217868FFF768
:1013B000CBFF03461A467C4B1A7007F10C0301332E
:1013C0001A4637217868FFF7BFFF03461A46764B67
:1013D0001A70764B1B68002B07D10AF055F90346AB
:1013E0001A46724B1A6000231BE10AF04DF90346BE
:1013F0007B616E4B1B687A69D31A3B616B4A7B69D0
:1014000013607B7B1A023B7B1946694BB3F90430AE
:10141000CB1A1343FB61FB69B3F5004F04DAFB6998
:10142000BB620023FB6206E00023BB62FB69C3F5DD
:101430007F43FF33FB625F4B5B685E4A93605E4BAA
:101440005B685D4A93605B4B1B685A4A53605A4B1A
:101450001B68594A5360BB6A564A1360FB6A564A76
:101460001360544B5A68534B1B689A4209DC514B2A
:101470005A68504B9B689A4203DB4E4B5B683B6259
:1014800042E04C4B5A684B4B9B689A4209DC494BF3
:101490005A68484B1B689A4203DB464B5B683B62C9
:1014A00032E0444B1A68434B9B689A4209DC414B3B
:1014B0001A68404B5B689A4203DB3E4B1B683B62F9
:1014C00022E03C4B1A683B4B9B689A4209DC394B43
:1014D0001A68384B5B689A4203DB364B1B683B62E9
:1014E00012E0344B9A68334B1B689A4209DC314B4B
:1014F0009A68304B5B689A4203DB2E4B9B683B62D9
:1015000002E02C4B9B683B622B4B5A682A4B1B68B2
:101510009A4209DC284B5A68274B9B689A4203DBA6
:10152000254B5B687B624CE0234B5A68224B9B68DF
:101530009A4209DC204B5A681F4B1B689A4203DB16
:101540001D4B5B687B623CE01B4B1A681A4B9B6827
:101550009A4209DC184B1A68174B5B689A4203DB06
:10156000154B1B687B622CE0134B1A68124B9B686F
:101570009A4209DC104B1A680F4B5B689A4203DBF6
:101580000D4B1B687B621CE00B4B9A680A4B1B6877
:101590009A4213DC084B9A68074B5B689A420DDB52
:1015A000054B9B687B620CE0B4000020B800002073
:1015B000D4000020C8000020BC0000201B4B9B680A
:1015C0007B627A6A3B6AD21A194B1B68D31A184697
:1015D000FEF7A8FF4FF00002164BFFF70DF802468A
:1015E0000B4614461D463869FEF78CFF02460B4633
:1015F00020462946FFF700F802460B4610461946DA
:101600004FF000020C4BFFF721F902460B46104643
:101610001946FFF7D3FA02467B68DA617A6A3B6AB9
:10162000D31A18463037BD46B0BD00BFBC000020FD
:10163000DC00002000408F3F00408F4080B586B026
:1016400000AFF86087ED000B00237B6100237B82F5
:101650000CE0F868FFF79CFE97ED000B08F0ADFE7C
:10166000B7F912309BB201339BB27B82B7F91230CB
:10167000B3F5007FEDDB00237B8210E0F868FFF715
:1016800087FE02467B6913447B6197ED000B08F0EF
:1016900094FEB7F912309BB201339BB27B82B7F94B
:1016A0001230B3F5006FE9DB7B69DB12024A13608D
:1016B00000BF1837BD4680BDDC00002080B483B079
:1016C00000AF0346FB80094B1B6800225A6200BF33
:1016D000064B1B685A6AFB889A42F9D300BF00BFC9
:1016E0000C37BD465DF8047B704700BF0C0200203C
:1016F00080B582B000AF78607B681B7F022B40F022
:10170000F680834B1B78002B1AD10421786806F0F1
:1017100099FD03467F4A13607D4B01221A707B6856
:101720001B681A6A7B681B6822F0A0021A627B6839
:101730001B681A6A7B681B6842F020021A62D6E0B6
:10174000734B1B78012B40F0D2800421786806F09F
:1017500079FD0346704A13607B681B6800225A6259
:101760006D4B1A686B4B1B689A4207D96A4B1A6813
:10177000684B1B68D31A694A13600FE0654B1A68FF
:10178000654B1B689A4209D9634B1A68614B1B6809
:10179000D31A03F57F43FF33604A1360604B5B68E5
:1017A0005F4A93605E4B1B685D4A53605B4B1B68EE
:1017B0001846FEF7A7FE50A3D3E90023FEF71CFF4F
:1017C00002460B46104619464FF000024FF0804388
:1017D000FFF73CF802460B461046194648A3D3E9EA
:1017E0000023FEF709FF02460B461046194646A3A2
:1017F000D3E90023FFF72AF802460B4610461946A4
:10180000FFF7BCF90346464A1360454B5A68444B00
:101810001B689A420AD8424B5A68414B9B689A42CD
:1018200004D33F4B5B683F4A136047E03C4B5A6828
:101830003B4B9B689A420AD8394B5A68384B1B6815
:101840009A4204D3364B5B68364A136036E0344B19
:101850001A68334B9B689A420AD8314B1A68304B4E
:101860005B689A4204D32E4B1B682E4A136025E016
:101870002B4B1A682A4B9B689A420AD8284B1A6845
:10188000274B5B689A4204D3254B1B68254A13609B
:1018900014E0234B9A68224B1B689A420AD8204BCB
:1018A0009A681F4B5B689A4204D31D4B9B681D4A84
:1018B000136003E01A4B9B681A4A1360144B002212
:1018C0001A707B681B681A6A7B681B6822F0A0028A
:1018D0001A627B681A687B681B68126A1A62124B6C
:1018E0001B68DA68104B1B6822F00402DA6000BF44
:1018F0000837BD4680BD00BF9CC420B07268A13FC0
:101900000000000000C062400000000000206140B4
:1019100018050020F8040020FC0400200005002029
:1019200008050020040500200C02002080B500AF4F
:10193000012210210A4804F0C7F80A20FFF7BEFE72
:1019400000221021064804F0BFF8064B1B68DA6835
:10195000044B1B6842F00402DA6000BF80BD00BF88
:10196000000C02400C02002080B500AF03F04EF9DD
:10197000324B46221A70314B57225A702F4B30226D
:101980009A702E4B3922DA702C4B64221A7100F0B7
:101990007BF800F091FB00F06FFB00F099FA00F08B
:1019A0009BF900F0FDF800F03DFB00F0E9F900F0D4
:1019B000C9F800F039FA02F069FA214BDB68204AD5
:1019C00043F08073D3601F4B00225A601D4B1B688D
:1019D0001C4A43F00103136004211B4805F0A8FED4
:1019E00008F0F4FB194A0021194808F039FC0346B5
:1019F000184A1360184A0021184808F031FC0346C1
:101A0000174A1360174A0021174808F029FC0346BB
:101A1000164A1360164A0021164808F021FC0346B6
:101A2000154A1360154A0021154808F019FC0346B1
:101A3000144A136008F0EEFBFEE700BF54030020D9
:101A4000F0ED00E0001000E00C02002084D8000857
:101A50002122000840030020A8D8000865220008C1
:101A600044030020CCD80008992200084803002035
:101A7000F0D80008393800084C03002014D90008B9
:101A8000F93A00085003002080B594B000AF07F188
:101A900020033022002118460BF0B0F907F10C03A7
:101AA00000221A605A609A60DA601A610023BB60F3
:101AB000224B1B6C214A43F0805313641F4B1B6C59
:101AC00003F08053BB60BB6800237B601C4B1B682A
:101AD0001B4A43F480431360194B1B6803F4804393
:101AE0007B607B6802233B620123FB6210233B6324
:101AF0000023BB6307F12003184605F001F80346F5
:101B0000002B01D002F016F80F23FB6000233B618D
:101B100000237B610023BB610023FB6107F10C0301
:101B20000021184605F064FA0346002B01D002F0AC
:101B300001F800BF5037BD4680BD00BF00380240ED
:101B40000070004080B500AF124B134A1A60114B71
:101B5000124A5A600F4B00229A600E4B0022DA6044
:101B60000C4B4FF480421A610A4B00225A61094B18
:101B700000229A61074B0022DA61064B00221A62AA
:101B8000044803F0D5FF0346002B01D001F0D2FF3B
:101B900000BF80BDE000002000540040A08601008E
:101BA00080B596B000AF07F1480300221A605A6072
:101BB0009A60DA6007F1400300221A605A6007F168
:101BC000240300221A605A609A60DA601A615A612E
:101BD0009A613B1D2022002118460BF00FF93C4B67
:101BE0003C4A1A603A4BA0225A60394B00229A6054
:101BF000374B4FF47A72DA60354B00221A61344B5E
:101C000000225A61324B00229A61314805F0D0FB24
:101C10000346002B01D001F08DFF4FF48053BB64CD
:101C200007F1480319462A4806F044FA0346002BF8
:101C300001D001F07FFF264805F009FC0346002B88
:101C400001D001F077FF00233B6400237B6407F1A0
:101C5000400319461E4806F09BFF0346002B01D0A7
:101C600001F068FF60237B620023BB620023FB62FC
:101C700000237B630023BB630023FB6307F1240382
:101C80000C221946124806F053F90346002B01D0E6
:101C900001F050FF00237B600023BB600023FB604A
:101CA00000233B6100237B614FF40053BB610023A1
:101CB0003B623B1D1946064806F0E6FF0346002B33
:101CC00001D001F037FF00BF5837BD4680BD00BFCF
:101CD000340100200000014080B58CB000AF07F156
:101CE0000C032422002118460BF088F83B1D00222B
:101CF0001A605A60214B4FF080421A601F4B00223D
:101D00005A601E4B00229A601C4B4FF6FF72DA603D
:101D10001A4B00221A61194B00229A610323FB60BF
:101D200000233B6101237B610023BB610A23FB612C
:101D300000233B6201237B620023BB620A23FB6218
:101D400007F10C0319460D4805F01AFE0346002B57
:101D500001D001F0EFFE00237B600023BB603B1D40
:101D60001946064806F014FF0346002B01D001F087
:101D7000E1FE00BF3037BD4680BD00BF7C010020C2
:101D800080B58CB000AF07F10C0324220021184667
:101D90000BF034F83B1D00221A605A60204B214A98
:101DA0001A601F4B00225A601D4B00229A601C4B88
:101DB0004FF6FF72DA601A4B00221A61184B0022AC
:101DC0009A610323FB6000233B6101237B610023B5
:101DD000BB610A23FB6100233B6201237B6200237A
:101DE000BB620A23FB6207F10C0319460C4805F09D
:101DF000C7FD0346002B01D001F09CFE00237B6051
:101E00000023BB603B1D1946054806F0C1FE034692
:101E1000002B01D001F08EFE00BF3037BD4680BDE3
:101E2000C40100200004004080B586B000AF07F177
:101E3000100300221A605A603B4600221A605A6062
:101E40009A60DA60204B214A1A601F4B10225A60B8
:101E50001D4B00229A601C4B4FF6FF72DA601A4B42
:101E600000221A61184B00229A61174805F010FCF5
:101E70000346002B01D001F05DFE00233B610023EF
:101E80007B6107F1100319460F4806F081FE0346F7
:101E9000002B01D001F04EFE00233B6001237B604C
:101EA0000023BB600023FB603B4604221946064822
:101EB00005F0A2FF0346002B01D001F03BFE00BF5E
:101EC0001837BD4680BD00BF0C020020000800404E
:101ED00080B596B000AF07F1480300221A605A603F
:101EE0009A60DA6007F1400300221A605A6007F135
:101EF000240300221A605A609A60DA601A615A61FB
:101F00009A613B1D2022002118460AF077FF434BBF
:101F1000434A1A60414B00225A60404B00229A60AB
:101F20003E4B41F61F42DA603C4B00221A613B4BAC
:101F300000225A61394B00229A61384805F038FA7C
:101F40000346002B01D001F0F5FD4FF48053BB6434
:101F500007F148031946314806F0ACF80346002B58
:101F600001D001F0E7FD2D4805F071FA0346002B82
:101F700001D001F0DFFD00233B6400237B6407F107
:101F800040031946254806F003FE0346002B01D006
:101F900001F0D0FD60237B620023BB620023FB6263
:101FA00000233B6300237B630023BB630023FB63AD
:101FB00007F1240300221946184805F0B9FF03462B
:101FC000002B01D001F0B6FD07F1240304221946CD
:101FD000124805F0ADFF0346002B01D001F0AAFD29
:101FE00000237B600023BB600023FB6000233B6178
:101FF00000237B614FF40053BB6100233B623B1D18
:102000001946064806F040FE0346002B01D001F0B9
:1020100091FD00BF5837BD4680BD00BF540200206F
:102020000004014080B500AF114B124A1A60104BFA
:102030004FF4E1325A600E4B00229A600C4B0022A2
:10204000DA600B4B00221A61094B0C225A61084BD3
:1020500000229A61064B0022DA61054806F07AFEFA
:102060000346002B01D001F065FD00BF80BD00BF1D
:102070009C0200200048004080B582B000AF0023E1
:102080007B600C4B1B6B0B4A43F400131363094B2F
:102090001B6B03F400137B607B68002205210C207E
:1020A00002F025FF0C2002F03EFF00BF0837BD46BE
:1020B00080BD00BF0038024080B58CB000AF07F192
:1020C0001C0300221A605A609A60DA601A610023C9
:1020D000BB614F4B1B6B4E4A43F0100313634C4BD9
:1020E0001B6B03F01003BB61BB6900237B61484B92
:1020F0001B6B474A43F080031363454B1B6B03F094
:1021000080037B617B6900233B61414B1B6B404A31
:1021100043F0010313633E4B1B6B03F001033B6170
:102120003B690023FB603A4B1B6B394A43F00803C1
:102130001363374B1B6B03F00803FB60FB68002342
:10214000BB60334B1B6B324A43F004031363304BC9
:102150001B6B03F00403BB60BB6800237B602C4B4C
:102160001B6B2B4A43F002031363294B1B6B03F0D9
:1021700002037B607B6800224FF4BC61254803F0BA
:10218000A3FC00223C21244803F09EFC00221021E5
:10219000224803F099FC4FF4BC63FB6101233B62CE
:1021A00000237B620023BB6207F11C031946194818
:1021B00003F0D6FA3C23FB6101233B6200237B62E0
:1021C0000023BB6207F11C031946134803F0C8FA49
:1021D0004FF48073FB6100233B6200237B6207F1B5
:1021E0001C0319460D4803F0BBFA1023FB610123C1
:1021F0003B6200237B620023BB6207F11C0319468C
:10220000064803F0ADFA00BF3037BD4680BD00BFC1
:10221000003802400010024000000240000C024062
:1022200080B588B000AF786007F10C030A4A0B490B
:1022300018460AF0C3FD07F10C031A4614210A20C0
:1022400001F0F2FD4FF48061054803F056FC0120D7
:1022500008F098F8E8E700BF5403002018D80008F9
:102260000010024080B588B000AF786007F10C0321
:10227000084918460AF0A2FD07F10C031A460A2184
:102280000A2001F0D1FD01F0A5FC012008F07AF848
:10229000ECE700BF20D800082DE9F04F2DED028BB0
:1022A000A1B002AF78600021844805F029F904212B
:1022B000824805F025F90C21814805F021F902E05A
:1022C000642008F05FF87F4B1B78002BF8D07C4B24
:1022D0001B6894221A644FF000027B4BC7E90A2363
:1022E000002387F87530002387F85F304FF0000235
:1022F0004FF00003C7E91A234FF000024FF000032C
:10230000C7E918234FF000024FF00003C7E9062386
:102310004FF000024FF00003C7E914234FF0000212
:102320004FF00003C7E91223684BD3E9002310469E
:102330001946FEF7FBFB0346654A13600522654913
:10234000654806F0E6FD502008F01CF8614B1B784C
:10235000642BF8D05F4B5B78642BF4D05D4B9B789B
:10236000642BF0D05B4BDB78642BECD0594B1B79A2
:10237000642BE8D0002387F85F30564B9B78303BC6
:102380009BB21A46920013441A4691001A460B4615
:1023900013449B009AB24F4BDB78303B9BB21946FB
:1023A00089000B445B009BB213449AB2494B1B79E2
:1023B0009BB213449BB2303B9BB2A7F87630454B9F
:1023C0001B78552B40F09480424B5B78532B40F0A8
:1023D0008F804FF4967007F0D5FF0AF0E3F93D4B7C
:1023E0009B789BB2303B9BB2A7F846303B4B1B68B7
:1023F0009AB2384BDB78303B9BB2194689000B44CC
:102400005B0099B2334B1B799BB20B449BB2D31A3E
:102410009BB230339BB2A7F87630B7F94630B7F8A5
:1024200076102F4A22F813102A4B46221A70294B95
:1024300057225A70B7F976302A4A82FB031252119A
:10244000DB17D31A1BB2DAB2274BA3FB0213D9084E
:102450000B469B000B445B00D31ADBB23033DAB27D
:102460001C4B9A70B7F97630204A82FB0312921007
:10247000DB17D31A1BB2DAB21B4BA3FB0213D9082A
:102480000B469B000B445B00D31ADBB23033DAB24D
:10249000104BDA70B7F87630DAB2134BA3FB0213A5
:1024A000D9080B469B000B445B00D31ADBB23033D8
:1024B000DAB2084B1A710AF0A5F98CE05402002038
:1024C000340100207003002000805640600300208B
:1024D0005C030020540300209C020020040500201F
:1024E000280500201F85EB51CDCCCCCC67666666F5
:1024F000804B1B78522B6ED17E4B5B78542B6AD16C
:102500000AF050F97B4B9B789BB2303B9BB2A7F80B
:102510004630784B46221A70764B57225A70B7F9DC
:102520004630754A32F81320724BDB78303B9BB251
:10253000194689000B445B0099B26E4B1B799BB224
:102540000B449BB213449BB2303B9BB2A7F876304E
:10255000B7F97630694A82FB03125211DB17D31A9E
:102560001BB2DAB2664BA3FB0213D9080B469B00E1
:102570000B445B00D31ADBB23033DAB25D4B9A7096
:10258000B7F976305F4A82FB03129210DB17D31A39
:102590001BB2DAB25A4BA3FB0213D9080B469B00BD
:1025A0000B445B00D31ADBB23033DAB2514BDA7032
:1025B000B7F87630DAB2524BA3FB0213D9080B46B8
:1025C0009B000B445B00D31ADBB23033DAB2494BC9
:1025D0001A710AF017F9474B1B78462B03D1454B6C
:1025E0005B784C2B07D0434B1B78422B17D1414BC8
:1025F0005B78522B13D1444B1A68B7F97630D31A53
:10260000414A1360404B1B681846FDF78BFF02469A
:102610000B46C7E90A23012387F8753030E0354BB4
:102620001B78462B03D1334B5B78522B07D0314BB1
:102630001B78422B17D12F4B5B784C2B13D1B7F95A
:102640007620314B1B6813442F4A13602E4B1B68B6
:102650001846FDF767FF02460B46C7E90A23002329
:1026600087F875300CE0234B5B78572B08D1264B4D
:102670001B681846FDF756FF02460B46C7E90A23BA
:102680001C4B5B784C2B18D1204B1B685B221A64C7
:102690001F4B1B78022B04D14FF4FA7007F072FE27
:1026A00007E01B4B1B78012B03D14FF4877007F019
:1026B00069FE174B00221A703FE00E4B5B78522BDD
:1026C00028D1124B1B68F0221A64114B1B78002B87
:1026D00004D14FF4FA7007F055FE07E00C4B1B785D
:1026E000012B03D14FF4877007F04CFE084B0222F8
:1026F0001A7022E054030020280500201F85EB51AA
:10270000CDCCCCCC676666665C030020340100202B
:1027100030000020A04B1B6894221A649F4B1B784A
:10272000022B03D09D4B1B78002B03D14FF48770F5
:1027300007F028FE994B01221A70994B5B78572BB2
:1027400000F0EC8397494FF000024FF00003C1E91D
:10275000002307F1280300220192012200929FED3D
:10276000882B9FED891B9FED8A0B8E4A8E498F48DF
:1027700001F052FC01218D4801F084FD0A218B48B3
:1027800001F0F4FE8A4BD3E900014FF00002894BBF
:10279000FDF77AFD02460B4643EC182B844BD3E938
:1027A00000234FF000008349FDF76EFD02460B4603
:1027B00043EC172BB0EE471AF0EE671AB0EE480A5A
:1027C000F0EE680A794801F07BFD66E34FF4806122
:1027D000794803F092F9754801F06AFC09F0E2FFCC
:1027E0006F4B5B784C2B40F0B2816E4BD3E900010C
:1027F0004FF000024FF00003FEF770F90346002B84
:1028000000F0E880002204216C4803F05DF9012209
:1028100008216A4803F058F900222021674803F094
:1028200053F901221021654803F04EF997F87530ED
:102830001846FDF767FE02460B464FF00000604960
:10284000FDF722FD02460B461046194602460B468E
:10285000FDF71CFD02460B4690469946D7E90A0152
:10286000514BD3E90023FDF70FFD02460B464046CE
:102870004946FDF7C1FE02460B46104619464FF089
:102880000002504BFEF72AF90346002B31D04E4B85
:102890001B881846FDF736FE4C4BD3E90023FDF7A5
:1028A000ABFE02460B4610461946414BD3E90023C6
:1028B000FDF7A2FE02460B4645490E681046194632
:1028C000FEF75CF9034673633F4B1B881846FDF720
:1028D00019FE374BD3E90023FDF78EFE02460B4667
:1028E0003B490E6810461946FEF748F90346B363A4
:1028F000CEE2354B1B881846FDF704FE334BD3E977
:102900000023FDF779FE02460B4690469946284B78
:10291000D3E90001234BD3E90023FDF7B5FC0246C0
:102920000B4640464946FDF767FE02460B462849DE
:102930000E6810461946FEF721F903467363224BD1
:102940001B881846FDF7DEFD80468946184BD3E903
:102950000001144BD3E90023FDF796FC02460B4619
:1029600040464946FDF748FE02460B4618490E68A8
:1029700010461946FEF702F90346B36388E200BF2A
:1029800000000000000000009A9999999999B93FB8
:102990001B2FDD240681953F3401002030000020EC
:1029A000540300202005002060030020A80300201D
:1029B000200000200000F03F001002400000024014
:1029C0000000E03F00003E40120000200800002010
:1029D0005402002000220821A14803F075F80122CA
:1029E00004219F4803F070F8002210219C4803F056
:1029F0006BF8012220219A4803F066F897F87530A9
:102A00001846FDF77FFD02460B464FF00000954942
:102A1000FDF73AFC02460B461046194602460B46A5
:102A2000FDF734FC02460B4690469946D7E90A0169
:102A30008D4BD3E90023FDF727FC02460B464046A9
:102A40004946FDF7D9FD02460B46104619464FF0A0
:102A50000002864BFEF742F80346002B31D0844B30
:102A60001B881846FDF74EFD824BD3E90023FDF786
:102A7000C3FD02460B46104619467F4BD3E900239F
:102A8000FDF7BAFD02460B467C490E681046194612
:102A9000FEF774F803467363754B1B881846FDF701
:102AA00031FD754BD3E90023FDF7A6FD02460B4629
:102AB00072490E6810461946FEF760F80346B36384
:102AC000E6E16B4B1B881846FDF71CFD694BD3E90B
:102AD0000023FDF791FD02460B4690469946684B50
:102AE000D3E90001644BD3E90023FDF7CFFB024695
:102AF0000B4640464946FDF77FFD02460B465F49BF
:102B00000E6810461946FEF739F803467363584BB2
:102B10001B881846FDF7F6FC80468946584BD3E9DA
:102B20000001554BD3E90023FDF7B0FB02460B46ED
:102B300040464946FDF760FD02460B464F490E6888
:102B400010461946FEF71AF80346B363A0E14D4B51
:102B50005B78522B40F09C81494BD3E900014FF048
:102B600000024FF00003FDF7B9FF0346002B00F011
:102B7000D380002208213A4802F0A6FF0122042156
:102B8000374802F0A1FF00221021354802F09CFFD7
:102B900001222021324802F097FF97F8753018463D
:102BA000FDF7B0FC02460B464FF000002D49FDF743
:102BB0006BFB02460B461046194602460B46FDF7D4
:102BC00065FB02460B4690469946D7E90A01264B1B
:102BD000D3E90023FDF758FB02460B464046494621
:102BE000FDF70AFD02460B46104619464FF000025B
:102BF0001E4BFDF773FF0346002B47D01C4B1B8871
:102C00001846FDF77FFC1C4BD3E90023FDF7F4FCCD
:102C100002460B4619490E6810461946FDF7AEFFED
:102C200003467363124B1B881846FDF76BFC164B6B
:102C3000D3E90023FDF7E0FC02460B461046194697
:102C40000D4BD3E90023FDF7D7FC02460B460B4999
:102C50000E6810461946FDF791FF0346B36317E16E
:102C6000000002400000E03F6003002000003E4002
:102C70001200002008000020200000205402002044
:102C8000200500205403002000000020C04B1B88BA
:102C90001846FDF737FC80468946BE4BD3E9000154
:102CA000BD4BD3E90023FDF7EFFA02460B46404641
:102CB0004946FDF7A1FC02460B46B8490E6810468E
:102CC0001946FDF75BFF03467363B14B1B8818463B
:102CD000FDF718FCB24BD3E90023FDF78DFC02464B
:102CE0000B4690469946AB4BD3E90001AA4BD3E97A
:102CF0000023FDF7C9FA02460B4640464946FDF758
:102D00007BFC02460B46A5490E6810461946FDF7A6
:102D100035FF0346B363BBE000220421A14802F063
:102D2000D3FE012208219F4802F0CEFE002220217E
:102D30009C4802F0C9FE012210219A4802F0C4FE0C
:102D400097F875301846FDF7DDFB02460B464FF04D
:102D500000009549FDF798FA02460B4610461946C1
:102D600002460B46FDF792FA02460B4690469946FC
:102D7000D7E90A018D4BD3E90023FDF785FA024616
:102D80000B4640464946FDF737FC02460B461046C7
:102D900019464FF00002864BFDF7A0FE0346002BBC
:102DA00031D07B4B1B881846FDF7ACFB794BD3E940
:102DB0000023FDF721FC02460B4678490E681046B9
:102DC0001946FDF7DBFE03467363714B1B881846FB
:102DD000FDF798FB724BD3E90023FDF70DFC02468B
:102DE0000B46104619466B4BD3E90023FDF704FC54
:102DF00002460B4669490E6810461946FDF7BEFEAD
:102E00000346B36344E0624B1B881846FDF77AFB28
:102E100080468946604BD3E900015E4BD3E900232D
:102E2000FDF734FA02460B4640464946FDF7E4FBFF
:102E300002460B4659490E6810461946FDF79EFE9C
:102E400003467363524B1B881846FDF75BFB544BDC
:102E5000D3E90023FDF7D0FB02460B469046994686
:102E60004D4BD3E900014B4BD3E90023FDF70EFA9C
:102E700002460B4640464946FDF7BEFB02460B465E
:102E800046490E6810461946FDF778FE0346B363BF
:102E900009F0B8FC0A2007F090FA97F87530184648
:102EA000FDF730FB02460B464FF000003E49FDF7B0
:102EB000EBF902460B461046194602460B46FDF753
:102EC000E5F902460B4690469946D7E90A01374B89
:102ED000D3E90023FDF7D8F902460B4640464946A0
:102EE000FDF78AFB02460B46104619464FF00002DA
:102EF0004FF00003FDF710FE0346002B7FF466AC95
:102F000009F050FC254B1B6800225A63234B1B68B9
:102F100000229A6309F076FC00F056BC25494FF078
:102F200000024FF00003C1E90023234B00221A6086
:102F3000224B1B78462B43D100220421194802F072
:102F4000C3FD01220821174802F0BEFD0022202106
:102F5000144802F0B9FD01221021124802F0B4FD1C
:102F6000012387F87530B7F976301846FDF7DAFA9D
:102F700005A3D3E90023FDF73FFB02460B46C7E953
:102F800006234DE0AFF30080295C8FC2F528F03FA7
:102F90001200002020000020200500205402002004
:102FA00000000020000002400000E03F600300201D
:102FB00000003E40780300208003002054030020DE
:102FC000954B1B78422B2BD100220821934802F00D
:102FD0007BFD01220421914802F076FD00221021A0
:102FE0008E4802F071FD012220218C4802F06CFD18
:102FF000002387F87530B7F976301846FDF792FA56
:1030000002460B46144683F0004575A3D3E900231E
:1030100020462946FDF7F0FA02460B46C7E906238B
:103020007F494FF000024FF00003C1E900234FF049
:1030300000024FF00003C7E9082307F1180307F166
:10304000200200210191012100919FED672B9FED4E
:10305000681B9FED690B7349734800F0DDFF012188
:10306000714801F00FF90A216F4801F07FFA6F4BA8
:10307000D3E900014FF000026D4BFDF705F9024660
:103080000B4643EC182B694BD3E900234FF00000AB
:103090006749FDF7F9F802460B4643EC172BB0EEF3
:1030A000471AF0EE671AB0EE480AF0EE680A5E487A
:1030B00001F006F907F12803002201920122009293
:1030C0009FED492B9FED4A1B9FED4D0B544A5949EB
:1030D000594800F0A1FF0121574801F0D3F80A2117
:1030E000554801F043FA554BD3E90023924683F04B
:1030F000004B524B93ED007BB0EE471AF0EE671A8F
:103100004BEC10AB4C4801F0DBF84D4B1B68002238
:103110005A634B4B1B6800229A6324E3424800F039
:10312000C7FF454800F0C4FF3B4B1B78462B40F0DF
:103130008D80D7E90A013F4BD3E90023FDF7A4F8BE
:1031400002460B46104619462FA3D3E90023FDF78C
:1031500053FA02460B46104619462DA3D3E9002325
:10316000FDF794F802460B4636490E68104619469C
:10317000FDF704FD03463364334B1B881846FDF707
:10318000C1F980468946264BD3E900014FF0000281
:10319000274BFDF77BF802460B4640464946FDF7B4
:1031A0002BFA02460B46C7E91A23274B1B88184601
:1031B000FDF7A8F980468946194BD3E900234FF063
:1031C00000001B49FDF760F802460B4640464946A1
:1031D000FDF712FA02460B46C7E918238FE000BF3D
:1031E000295C8FC2F528F03F0000000000000000BD
:1031F0007B14AE47E17A943FBA490C022B87863F95
:103200009A9999999999A93F9A9999999999014067
:10321000CDCCCCCCCC8C62405403002000000240CA
:10322000200500207803002018040020180000204A
:103230000000F03F600300208804002028000020E8
:10324000540200203401002010000020B84B1B78ED
:10325000422B54D1B74BD3E90001D7E90A23FDF73C
:1032600013F802460B4610461946ABA3D3E90023D8
:10327000FDF7C2F902460B4610461946A8A3D3E94A
:103280000023FDF703F802460B46AB490E681046D3
:103290001946FDF773FC03463364A84B1B88184698
:1032A000FDF730F980468946A54BD3E900234FF05E
:1032B0000000A449FCF7E8FF02460B464046494699
:1032C000FDF79AF902460B46C7E91A239B4B1B8868
:1032D0001846FDF717F980468946994BD3E9000156
:1032E0004FF00002974BFCF7D1FF02460B464046D9
:1032F0004946FDF781F902460B46C7E9182309F054
:1033000051FAD7E908014FF000024FF00003FDF732
:10331000E5FB0346002B00F02581002208218A48A6
:1033200002F0D2FB01220421874802F0CDFB0022EB
:103330001021854802F0C8FB01222021824802F0BA
:10334000C3FB97F875301846FDF7DCF84FF0000224
:103350007E4BFCF799FF02460B4610461946024683
:103360000B46FCF793FF02460B4690469946D7E979
:103370000601774BD3E90023FCF786FF02460B4694
:1033800040464946FDF738F902460B4610461946B5
:103390004FF000026F4BFDF7A1FB0346002B34D02A
:1033A0006D4BD3E90001D7E91A23FDF725F9024651
:1033B0000B46104619465CA3D3E90023FDF71CF920
:1033C00002460B4665490E6810461946FDF7D6FBC6
:1033D00003467363604BD3E90001D7E91823FDF777
:1033E0000BF902460B46104619464FA3D3E90023BA
:1033F000FDF702F902460B4658490E681046194679
:10340000FDF7BCFB0346B363A8E197F87530184697
:10341000FDF778F84FF000024C4BFCF735FF024601
:103420000B461046194602460B46FCF72FFF024694
:103430000B4690469946D7E90601454BD3E9002350
:10344000FCF722FF02460B4640464946FDF7D4F8FA
:1034500002460B46104619464FF00002404BFDF75E
:103460003DFB0346002B22D03B4BD3E90001D7E9BB
:103470001A23FDF7C1F802460B4638490E6810467C
:103480001946FDF77BFB03467363334BD3E9000119
:10349000D7E91823FDF7B0F802460B462F490E680E
:1034A00010461946FDF76AFB0346B36356E12A4B03
:1034B000D3E90001D7E90823FCF7E6FE02460B46F4
:1034C00010461946D7E91A23FDF796F802460B462F
:1034D00022490E6810461946FDF750FB03467363F8
:1034E0001D4BD3E90001D7E90823FCF7CDFE0246C6
:1034F0000B4610461946D7E91823FDF77DF802461A
:103500000B4616490E6810461946FDF737FB034671
:10351000B36323E1AFF300809A9999999999014097
:10352000CDCCCCCCCC8C6240333333333333E33F1C
:10353000540300206003002034010020100000200C
:10354000200500200000F03F000002400000E03FA6
:1035500078030020000024401800002054020020BE
:103560000000374000220421A94802F0ADFA0122F0
:103570000821A74802F0A8FA00222021A44802F05E
:10358000A3FA01221021A24802F09EFA97F87530A2
:103590001846FCF7B7FF4FF000029E4BFCF774FE95
:1035A00002460B461046194602460B46FCF76EFED5
:1035B00002460B4690469946D7E90601964BD3E959
:1035C0000023FCF761FE02460B4640464946FDF7E4
:1035D00013F802460B46104619464FF000028F4B77
:1035E000FDF77CFA0346002B34D08D4BD3E9000164
:1035F000D7E91A23FDF700F802460B461046194694
:1036000081A3D3E90023FCF7F7FF02460B46854967
:103610000E6810461946FDF7B1FA03467363804BF6
:10362000D3E90001D7E91823FCF7E6FF02460B4671
:103630001046194674A3D3E90023FCF7DDFF0246C8
:103640000B4678490E6810461946FDF797FA03466F
:10365000B36383E097F875301846FCF753FF4FF0DB
:1036600000026C4BFCF710FE02460B461046194652
:1036700002460B46FCF70AFE02460B469046994668
:10368000D7E90601644BD3E90023FCF7FDFD0246B0
:103690000B4640464946FCF7AFFF02460B46104634
:1036A00019464FF00002604BFDF718FA0346002B55
:1036B00022D05B4BD3E90001D7E91A23FCF79CFF2A
:1036C00002460B4657490E6810461946FDF756FA52
:1036D00003467363524BD3E90001D7E91823FCF783
:1036E0008BFF02460B464F490E6810461946FDF700
:1036F00045FA0346B36331E0494BD3E90001D7E90A
:103700000823FCF7C3FD02460B4610461946D7E9CD
:103710001A23FCF771FF02460B4642490E68104619
:103720001946FDF72BFA034673633D4BD3E90001BD
:10373000D7E90823FCF7AAFD02460B4610461946B6
:10374000D7E91823FCF758FF02460B4635490E68A7
:1037500010461946FDF712FA0346B36309F052F812
:103760000A2006F02AFE97F875301846FCF7CAFEC4
:103770004FF00002274BFCF787FD02460B46104630
:10378000194602460B46FCF781FD02460B46904661
:103790009946D7E90601204BD3E90023FCF774FDD5
:1037A00002460B4640464946FCF726FF02460B46BA
:1037B000104619464FF000024FF00003FDF7ACF938
:1037C0000346002B7FF4AAAC164B1B6800225A63F9
:1037D000144B1B6800229A63144B64221A70134B1B
:1037E00064225A70114B64229A70104B6422DA7072
:1037F0000E4B64221A714FF0FF3302220C490D4820
:1038000005F0F5FAFEF79FBD333333333333E33F2F
:10381000000002400000E03F780300200000244048
:1038200018000020540200200000374054030020FC
:1038300030D800089C02002080B58EB000AF7860C0
:103840009D4A9E499E48FDF787FBB86208F0AAFF93
:1038500007F114039B49184609F0B0FA07F1140365
:103860001A461E210A2000F0DFFA4FF4FA6006F033
:1038700089FD9FED8D0B9248FDF7E0FE4FF4FA6055
:1038800006F080FD08F0BEFF8F4B01221A704FF04A
:10389000FF337B634FF0FF333B630023FB623C212C
:1038A0008A4804F013F908F07DFF8548FDF770FDA4
:1038B00008F0A8FF824BDB691846FCF745FE844BF5
:1038C000D3E90023FCF7E2FC02460B468049C1E93C
:1038D00000237F4BD3E900237E49C1E900237B6BA2
:1038E000B3F1FF3F03D03B6BB3F1FF3F06D1774B02
:1038F0001B685B6A3B633B6B7B6333E03B6B7B63C7
:10390000724B1B685B6A3B63704B1B681B6803F060
:103910001003102B10D13A6B7B6B9A4204DC7A6B4C
:103920003B6BD31AFB6217E03B6BC3F57F43FF335E
:103930007A6B1344FB620FE03A6B7B6B9A4204DBB9
:103940007A6B3B6BD31AFB6206E03B6B03F57F435C
:10395000FF337A6BD31AFB625F4B1A68FB6A13441E
:103960005D4A13605C4B1B681846FCF7DBFD50A3F7
:10397000D3E90023FCF740FE02460B465749C1E954
:103980000023544BD3E9002310461946FDF7CEF827
:1039900003464FF47A7203FB02F207F11403504915
:1039A000184609F00BFA07F114031A461E210A20E3
:1039B00000F03AFA4FF480714A4802F06DF803467D
:1039C000002B40D1444B00221A6044494FF00002C2
:1039D0004FF00003C1E900234FF0FF337B634FF04A
:1039E000FF333B630023FB6239494FF000024FF085
:1039F0000003C1E9002337494FF000024FF00003F4
:103A0000C1E90023384B00221A6008F0CBFE07F111
:103A100014032C49184609F0D1F907F114031A468A
:103A20001E210A2000F000FA4FF4FA6006F0AAFC0A
:103A30009FED1D0B2248FDF701FE4FF4FA6006F0E2
:103A4000A1FC08F0DFFE234BD3E900014FF0000298
:103A5000264BFCF7D1FD02460B4610461946FDF7F2
:103A600065F8024607F108032149184609F0A6F94E
:103A700007F108014FF0FF3308220F4805F0B7F9AE
:103A800007F108031B49184609F098F907F10801E6
:103A90004FF0FF330222084805F0A9F90A2006F08A
:103AA0008CFC00E7AFF30080000000000000354010
:103AB000994B7CF3E9CE8A3F9C020020E000002075
:103AC0008403002034D80008700300207C0100200B
:103AD000680300206003002080030020780300209A
:103AE00044D80008000C02405C030020000059404C
:103AF00050D8000858D8000880B588B000AF78606A
:103B0000FDF714FF094B1A6807F10C030849184622
:103B100009F054F907F10C031A4628210A2000F095
:103B200083F9642006F049FCEAE700BF04050020A1
:103B30005CD8000880B400AF72B600BFFEE700009A
:103B400080B584B000AF03460A46FB711346BB71D3
:103B5000BB79012B06D101224FF480711C4801F082
:103B6000B3FF05E000224FF48071194801F0ACFF6B
:103B70000023FB731EE000222021154801F0A4FF62
:103B800097F90730002B05DA01224021104801F097
:103B90009BFF04E0002240210D4801F095FF012227
:103BA00020210B4801F090FFFB795B00FB71FB7B50
:103BB0000133FB73FB7B072BDDD901224FF48071AE
:103BC000034801F081FF00BF1037BD4680BD00BF34
:103BD0000010024080B582B000AF0023FB7126E0E8
:103BE000FB79503BDBB200211846FFF7A9FF00210B
:103BF0000020FFF7A5FF00211020FFF7A1FF002301
:103C0000BB710DE0BA79FB790D49D2000A44134427
:103C10001B7801211846FFF793FFBB790133BB7175
:103C200097F90630002BEDDAFB790133FB71FB7954
:103C3000072BD5D900BF00BF0837BD4680BD00BFE8
:103C40003C05002080B582B000AF0023FB7114E07A
:103C50000023BB710AE0BA79FB790C49D2000A440F
:103C6000134400221A70BB790133BB7197F90630F7
:103C7000002BF0DAFB790133FB71FB79072BE7D9D5
:103C8000FFF7A8FF00BF0837BD4680BD3C050020F8
:103C900080B485B000AF0346FB710B46BB71134681
:103CA0007B710023FB7397F90730002B41DBBB7955
:103CB0003F2B3ED8BB79DB08DBB2C3F10703BB73F4
:103CC000BB7903F007037B737B7BC3F107030122FE
:103CD00002FA03F3FB737B79002B12D0FA79BB7BDA
:103CE0001749D2000A4413441878FA79BB7BF97B50
:103CF0000143C8B21249D2000A44134402461A7062
:103D000018E0FA79BB7B0E49D2000A4413441B78B1
:103D10005AB297F90F30DB435BB2134059B2FA79CC
:103D2000BB7BC8B20649D2000A44134402461A704B
:103D300000E000BF1437BD465DF8047B704700BF4C
:103D40003C05002090B585B000AF044608461146FA
:103D50001A462346FB710346BB710B467B71134623
:103D60003B71BB793B737B79203B7B710023BB7339
:103D70004DE03B790C2B0BD17A79B97B284813465F
:103D80005B0013449B0003440B441B78FB7307E068
:103D90007A79BB7B234912010A4413441B78FB73D5
:103DA00000237B732DE097F90F30002B07DA97F88B
:103DB0002020B979FB791846FFF76AFF0CE097F8E5
:103DC0002030002B0CBF01230023DBB21A46B97947
:103DD000FB791846FFF75CFFFB7B5B00FB73BB794D
:103DE0000133BB71BA793B7BD21A3B799A4205D138
:103DF0003B7BBB71FB790133FB7105E07B7B0133BE
:103E00007B737B7B072BCED9BB7B0133BB73BA7B28
:103E10003B799A42ADD300BF00BF1437BD4690BD79
:103E200038D90008ACDD000880B584B002AF034685
:103E30003A60FB710B46BB711FE0FB797A2B04D90A
:103E40000023FB71BB791033BB71BB793A2B05D9C9
:103E50000023FB71FB79BB71FFF7F4FE3B681A7816
:103E6000B979F879012300930C23FFF76BFFFB79F5
:103E70000833FB713B6801333B603B681B78002BC8
:103E8000DBD100BF00BF0837BD4680BD80B500AFA5
:103E900002F00EFE414B1B6F404A23F001031367F3
:103EA0003E4B1B6F3D4A23F00403136702F014FEE0
:103EB000002280213A4801F007FE642000F018FF3C
:103EC00001228021364801F0FFFD0021AE20FFF7DE
:103ED00037FE0021D520FFF733FE00215020FFF7E9
:103EE0002FFE0021A820FFF72BFE00213F20FFF727
:103EF00027FE0021D320FFF723FE00210020FFF73B
:103F00001FFE00214020FFF71BFE00218D20FFF740
:103F100017FE00211420FFF713FE00212020FFF7D9
:103F20000FFE00210220FFF70BFE0021A120FFF76A
:103F300007FE0021C020FFF703FE0021DA20FFF773
:103F4000FFFD00211220FFF7FBFD00218120FFF77C
:103F5000F7FD0021EF20FFF7F3FD0021D920FFF747
:103F6000EFFD0021F120FFF7EBFD0021DB20FFF743
:103F7000E7FD00213020FFF7E3FD0021A420FFF73B
:103F8000DFFD0021A620FFF7DBFD0021AF20FFF7BA
:103F9000D7FDFFF757FE00BF80BD00BF00380240CD
:103FA0000010024080B582B000AF78607B685B6C27
:103FB000D3E900237968C1E914237B681B6CD3E93A
:103FC00000237968C1E916237B68D3E914017B6873
:103FD000D3E91A23FCF7A0FD0346002B06D07B682B
:103FE000D3E91A237968C1E9142311E07B68D3E986
:103FF00014017B68D3E91823FCF770FD0346002BFE
:1040000000D105E07B68D3E918237968C1E914235E
:1040100000BF0837BD4680BD80B58AB000AF78626A
:104020003962FA61BB6187ED040B87ED021B87EDF6
:10403000002B7B6AFA695A647B6A3A6A1A647B6A63
:10404000BA699A647B6A00225A709FED151B9FED36
:10405000160B786A00F034F97B6A64229A6097F84C
:1040600034301946786A00F041FA97F83030194632
:1040700097ED002B97ED021B97ED040B786A00F08B
:104080008DF900F029FE02467B6A9B68D21A7B6A92
:104090005A6000BF2837BD4680BD00BFAFF3008027
:1040A0000000000000E06F40000000000000000081
:1040B000B0B58CB000AF78607B685B78002B01D125
:1040C0000023DBE000F008FE78627B685B687A6AB8
:1040D000D31A3B627B689B683A6A9A42C0F0CD80F3
:1040E0007B681B6CD3E90023C7E906237B689B6CC4
:1040F000D3E90001D7E90623FCF7C6F802460B46D0
:10410000C7E904237B68D3E91623D7E90601FCF746
:10411000BBF802460B46C7E902237B68D3E9144586
:104120007B68D3E90C01D7E90423FCF765FA024662
:104130000B4620462946FCF7A9F802460B4679684B
:10414000C1E914237B681B78002B14D17B68D3E969
:1041500014457B68D3E90A01D7E90223FCF74CFA3E
:1041600002460B4620462946FCF78EF802460B46CF
:104170007968C1E914237B68D3E914017B68D3E92A
:104180001A23FCF7C9FC0346002B06D07B68D3E951
:104190001A237968C1E9142310E07B68D3E914017C
:1041A0007B68D3E91823FCF799FC0346002B05D064
:1041B0007B68D3E918237968C1E914237B681B78ED
:1041C000002B0BD07B68D3E90A23D7E90401FCF765
:1041D00013FA02460B46C7E90A2305E04FF0000236
:1041E0004FF00003C7E90A237B68D3E914457B68D5
:1041F000D3E90E01D7E90223FCF7FEF902460B468C
:1042000020462946FCF740F802460B46D7E90A014A
:10421000FCF73CF802460B46C7E90A237B68D3E962
:104220001A23D7E90A01FCF777FC0346002B05D0D7
:104230007B68D3E91A23C7E90A230EE07B68D3E938
:104240001823D7E90A01FCF749FC0346002B04D0E8
:104250007B68D3E91823C7E90A237B68596CD7E93F
:104260000A23C1E900237968D7E90623C1E91623A7
:104270007B687A6A5A60012300E0002318463037D1
:10428000BD46B0BD80B584B000AF78600B46FB7012
:10429000FB78012B0CBF01230023DBB2FB73FB7BFC
:1042A000002B06D07B685B78002B02D17868FFF783
:1042B00079FE7B68FA7B5A7000BF1037BD4680BD1F
:1042C00080B586B000AF786187ED020B87ED001BEB
:1042D000D7E90023D7E90201FCF714FC0346002BC1
:1042E00058D17969D7E90223C1E918237969D7E957
:1042F0000023C1E91A237B695B78002B4BD07B69D3
:104300005B6CD3E900017B69D3E91A23FCF704FC59
:104310000346002B07D07B69596C7B69D3E91A23CC
:10432000C1E9002312E07B695B6CD3E900017B6982
:10433000D3E91823FCF7D2FB0346002B06D07B6998
:10434000596C7B69D3E91823C1E900237B69D3E960
:1043500014017B69D3E91A23FCF7DEFB0346002B2B
:1043600006D07B69D3E91A237969C1E9142312E0E5
:104370007B69D3E914017B69D3E91823FCF7AEFB11
:104380000346002B07D07B69D3E918237969C1E97B
:10439000142300E000BF1837BD4680BD80B58AB049
:1043A00000AFF86187ED040B87ED021B87ED002B52
:1043B0000B46FB764FF000024FF00003D7E90401F3
:1043C000FCF78CFB0346002B40F089804FF0000285
:1043D0004FF00003D7E90201FCF780FB0346002BF6
:1043E0007DD14FF000024FF00003D7E90001FCF748
:1043F00075FB0346002B72D1FB69FA7E9A70FB7E37
:10440000012B0CBF01230023DBB21A46FB691A7093
:10441000F969D7E90423C1E90423F969D7E902233B
:10442000C1E90623F969D7E90023C1E90823FB693B
:104430009B681846FCF766F84FF000022A4BFCF721
:1044400005FA02460B46C7E90823F969D7E90423B0
:10445000C1E90A23D7E90823D7E90201FCF7CCF820
:1044600002460B46F969C1E90C23D7E90823D7E9CD
:104470000001FCF7EBF902460B46F969C1E90E238E
:10448000FB69DB78012B2BD1FB69D3E90A234FF0C1
:1044900000004FF00001FBF7F7FE02460B46F969FA
:1044A000C1E90A23FB69D3E90C234FF000004FF068
:1044B0000001FBF7E9FE02460B46F969C1E90C234E
:1044C000FB69D3E90E234FF000004FF00001FBF72A
:1044D000DBFE02460B46F969C1E90E2300E000BF8E
:1044E0002837BD4680BD00BF00408F4080B582B0F8
:1044F00000AF78600B46FB707B685B78002B2ED09A
:104500007B68DB78FA789A4229D07B68D3E90A2362
:104510004FF000004FF00001FBF7B6FE02460B46DD
:104520007968C1E90A237B68D3E90C234FF00000C6
:104530004FF00001FBF7A8FE02460B467968C1E97F
:104540000C237B68D3E90E234FF000004FF00001ED
:10455000FBF79AFE02460B467968C1E90E237B6899
:10456000FA78DA7000BF0837BD4680BDB0B584B0B8
:1045700000AF786039603B68002B2EDD3868FBF7B0
:10458000D1FF04460D467B689B681846FBF7BAFFCF
:1045900002460B4620462946FCF758F902460B46D0
:1045A000C7E902237B68D3E90C01D7E90223FCF7B2
:1045B00023F802460B467968C1E90C237B68D3E9EE
:1045C0000E01D7E90223FCF741F902460B46796850
:1045D000C1E90E233A687B689A6000BF1037BD4678
:1045E000B0BD000080B582B000AF00237B60124BED
:1045F0005B6C114A43F4804353640F4B5B6C03F4D0
:1046000080437B607B6800233B600B4B1B6C0A4A3A
:1046100043F080531364084B1B6C03F080533B60E2
:104620003B6800220F216FF0010000F060FC00BF2A
:104630000837BD4680BD00BF0038024080B58AB053
:1046400000AF786007F1140300221A605A609A6084
:10465000DA601A617B681B68194A93422CD10023E7
:104660003B61184B1B6B174A43F002031363154B56
:104670001B6B03F002033B613B694FF440737B61AA
:104680001223BB610023FB6103233B6204237B6293
:1046900007F1140319460C4801F062F80023FB608F
:1046A000084B1B6C074A43F400131364054B1B6C47
:1046B00003F40013FB60FB6800BF2837BD4680BDD4
:1046C00000540040003802400004024080B58CB025
:1046D00000AF786007F11C0300221A605A609A60EC
:1046E000DA601A617B681B68324A93422DD100233D
:1046F000BB61314B5B6C304A43F0010353642E4B7A
:104700005B6C03F00103BB61BB6900237B612A4B37
:104710001B6B294A43F010031363274B1B6B03F0F9
:1047200010037B617B694FF48043FB6102233B6292
:1047300000237B620023BB620123FB6207F11C03A1
:1047400019461E4801F00CF830E07B681B681C4AD3
:1047500093422BD100233B61174B5B6C164A43F00D
:1047600002035364144B5B6C03F002033B613B692F
:104770000023FB60104B1B6B0F4A43F004031363D1
:104780000D4B1B6B03F00403FB60FB68C023FB6154
:1047900002233B6200237B620023BB620323FB6294
:1047A00007F11C031946074800F0DAFF00BF303755
:1047B000BD4680BD000001400038024000100240AC
:1047C000000401400008024080B58CB000AF786062
:1047D00007F11C0300221A605A609A60DA601A61BD
:1047E0007B681B68B3F1804F4BD10023BB613F4B0B
:1047F0001B6C3E4A43F0010313643C4B1B6C03F0FB
:104800000103BB61BB6900237B61384B1B6B374ADB
:1048100043F001031363354B1B6B03F001037B6112
:104820007B6900233B61314B1B6B304A43F0020331
:1048300013632E4B1B6B03F002033B613B694FF488
:104840000043FB6102233B6200237B620023BB62C7
:104850000123FB6207F11C031946254800F080FF85
:104860000823FB6102233B6200237B620023BB62BF
:104870000123FB6207F11C0319461E4800F070FF7C
:1048800030E07B681B681C4A93422BD10023FB60FD
:10489000164B1B6C154A43F002031364134B1B6C3D
:1048A00003F00203FB60FB680023BB600F4B1B6B34
:1048B0000E4A43F0010313630C4B1B6B03F001031F
:1048C000BB60BB68C023FB6102233B6200237B62A9
:1048D0000023BB620223FB6207F11C031946044854
:1048E00000F03EFF00BF3037BD4680BD00380240BB
:1048F00000000240000402400004004080B58AB07D
:1049000000AF786007F1140300221A605A609A60C1
:10491000DA601A617B681B681D4A934234D1002318
:104920003B611C4B1B6C1B4A43F004031364194B83
:104930001B6C03F004033B613B690023FB60154BD8
:104940001B6B144A43F008031363124B1B6B03F0F9
:104950000803FB60FB684FF400537B610223BB61DB
:104960000023FB6100233B6202237B6207F11403F7
:104970001946094800F0F4FE002205211E2000F02F
:10498000B6FA1E2000F0CFFA00BF2837BD4680BD22
:104990000008004000380240000C024080B58AB098
:1049A00000AF786007F1140300221A605A609A6021
:1049B000DA601A617B681B68354A934263D1002331
:1049C0003B61344B1B6C334A43F480231364314BFB
:1049D0001B6C03F480233B613B690023FB602D4B80
:1049E0001B6B2C4A43F0040313632A4B1B6B03F02D
:1049F0000403FB60FB684FF440637B610223BB61EF
:104A00000023FB6103233B6207237B6207F114034E
:104A10001946214800F0A4FE204B214A1A601F4B82
:104A20004FF000625A601D4B00229A601B4B00221F
:104A3000DA601A4B4FF480621A61184B00225A61F7
:104A4000164B00229A61154B4FF48072DA61134BBA
:104A500000221A62114B00225A62104800F07EFABE
:104A60000346002B01D0FFF765F87B680B4A9A6379
:104A70000A4A7B68936300220521272000F037FA59
:104A8000272000F050FA00BF2837BD4680BD00BF88
:104A9000004800400038024000080240E0020020C8
:104AA0002860024080B400AFFEE780B400AFFEE7AC
:104AB00080B400AFFEE780B400AFFEE780B400AF83
:104AC000FEE780B400AF00BFBD465DF8047B7047D1
:104AD00080B500AF00F0ECF807F00CF90346012BAD
:104AE00001D007F0F1FE00BF80BD000080B500AF2F
:104AF000024800F0CBFB00BF80BD00BFE0020020F9
:104B000080B500AF024803F06FF800BF80BD00BF62
:104B10000C02002080B500AF024804F02BFA00BF61
:104B200080BD00BF9C02002080B586B000AF7860D9
:104B3000144A154BD31A7B617B693B61134B1B688D
:104B4000002B02D1114B124A1A60104B1A687B6875
:104B500013443A699A4207D208F058F903460C22E6
:104B60001A604FF0FF3309E0084B1B68FB60074BEE
:104B70001A687B681344054A1360FB6818461837A7
:104B8000BD4680BD00000220000400003C0900205A
:104B9000E053002080B400AF064BD3F88830054ABC
:104BA00043F47003C2F8883000BFBD465DF8047B53
:104BB000704700BF00ED00E0DFF834D00D480E492B
:104BC0000E4A002302E0D458C4500433C4188C4267
:104BD000F9D30B4A0B4C002301E013600432A242CC
:104BE000FBD3FFF7D7FF08F017F9FCF7BDFE7047BE
:104BF00000000220000000209400002000E40008D3
:104C000098000020DC530020FEE7000080B500AFD4
:104C10000E4B1B680D4A43F4007313600B4B1B686B
:104C20000A4A43F480631360084B1B68074A43F445
:104C300080731360032000F04FF90F2000F008F894
:104C4000FFF7D0FC0023184680BD00BF003C0240A7
:104C500080B582B000AF7860124B1A68124B1B7897
:104C600019464FF47A73B3FBF1F3B2FBF3F3184632
:104C700000F067F90346002B01D001230EE07B68AA
:104C80000F2B0AD8002279684FF0FF3000F02FF97F
:104C9000064A7B681360002300E0012318460837AA
:104CA000BD4680BD340000203C00002038000020BC
:104CB00080B400AF064B1B781A46064B1B681344A2
:104CC000044A136000BFBD465DF8047B704700BF17
:104CD0003C0000204009002080B400AF034B1B685B
:104CE0001846BD465DF8047B704700BF40090020B0
:104CF00080B584B000AF7860FFF7EEFFB8607B68E6
:104D0000FB60FB68B3F1FF3F05D00A4B1B781A46E6
:104D1000FB681344FB6000BFFFF7DEFF0246BB6881
:104D2000D31AFA689A42F7D800BF00BF1037BD46C1
:104D300080BD00BF3C00002080B485B000AF78602B
:104D40007B6803F00703FB600C4BDB68BB60BA6851
:104D50004FF6FF031340BB60FB681A02BB681343A6
:104D600043F0BF6343F40033BB60044ABB68D360C5
:104D700000BF1437BD465DF8047B704700ED00E0CE
:104D800080B400AF044BDB681B0A03F0070318462E
:104D9000BD465DF8047B704700ED00E080B483B051
:104DA00000AF0346FB7197F90730002B0BDBFB7953
:104DB00003F01F02074997F907305B09012000FA49
:104DC00002F241F8232000BF0C37BD465DF8047B9A
:104DD000704700BF00E100E080B483B000AF03463D
:104DE0003960FB7197F90730002B0ADB3B68DAB2B8
:104DF0000C4997F907301201D2B20B4483F8002313
:104E00000AE03B68DAB20849FB7903F00F03043B80
:104E10001201D2B20B441A7600BF0C37BD465DF8C2
:104E2000047B704700E100E000ED00E080B489B051
:104E300000AFF860B9607A60FB6803F00703FB61BC
:104E4000FB69C3F10703042B28BF0423BB61FB6983
:104E50000433062B02D9FB69033B00E000237B618E
:104E60004FF0FF32BB6902FA03F3DA43BB681A4022
:104E70007B699A404FF0FF317B6901FA03F3D94314
:104E80007B680B40134318462437BD465DF8047B0E
:104E90007047000080B582B000AF78607B68013B4E
:104EA000B3F1807F01D301230FE00A4A7B68013B05
:104EB00053600F214FF0FF30FFF78EFF054B0022AC
:104EC0009A60044B07221A60002318460837BD4633
:104ED00080BD00BF10E000E080B582B000AF786018
:104EE0007868FFF729FF00BF0837BD4680BD80B551
:104EF00086B000AF0346B9607A60FB7300237B6124
:104F0000FFF73EFF78617A68B9687869FFF78EFF2E
:104F1000024697F90F3011461846FFF75DFF00BFB4
:104F20001837BD4680BD80B582B000AF0346FB7127
:104F300097F907301846FFF731FF00BF0837BD4625
:104F400080BD80B582B000AF78607868FFF7A2FFBF
:104F5000034618460837BD4680BD000080B586B0C0
:104F600000AF786000237B61FFF7B6FE38617B6895
:104F7000002B01D1012399E07B68022283F83520C0
:104F80007B68002283F834207B681B681A687B6882
:104F90001B6822F001021A600FE0FFF79DFE024637
:104FA0003B69D31A052B08D97B6820225A657B6898
:104FB000032283F83520032378E07B681B681B6895
:104FC00003F00103002BE8D17B681B681B687B6141
:104FD0007A69384B13407B617B685A687B689B68B1
:104FE0001A437B68DB681A437B681B691A437B683A
:104FF0005B691A437B689B691A437B68DB691A43C8
:105000007B681B6A13437A6913437B617B685B6A25
:10501000042B07D17B68DA6A7B681B6B13437A69C0
:1050200013437B617B681B687A691A607B681B6825
:105030005B697B617B6923F007037B617B685B6A4B
:105040007A6913437B617B685B6A042B17D17B68A9
:105050009B6A7A6913437B617B68DB6A002B0ED005
:10506000786800F001FB0346002B08D07B684022E3
:105070005A657B68012283F83520012316E07B689E
:105080001B687A695A61786800F0B8FA0346FB60D9
:105090007B68DB6D3F229A40FB689A607B68002248
:1050A0005A657B68012283F835200023184618379B
:1050B000BD4680BD3F8010F080B586B000AFF8607F
:1050C000B9607A603B600023FB75FB689B6D3B61B8
:1050D000FB6893F83430012B01D1022340E0FB68D8
:1050E000012283F83420FB6893F83530DBB2012BC2
:1050F0002FD1FB68022283F83520FB6800225A6515
:105100003B687A68B968F86800F04AFAFB68DB6DBA
:105110003F229A403B699A60FB681B681A68FB68EB
:105120001B6842F016021A60FB681B6C002B07D04C
:10513000FB681B681A68FB681B6842F008021A606B
:10514000FB681B681A68FB681B6842F001021A6062
:1051500005E0FB68002283F834200223FB75FB7D09
:1051600018461837BD4680BD80B584B000AF786062
:105170007B689B6DFB60FFF7AFFDB8607B6893F8C1
:105180003530DBB2022B08D07B6880225A657B6801
:10519000002283F83420012352E07B681B681A68E0
:1051A0007B681B6822F016021A607B681B685A69CC
:1051B0007B681B6822F080025A617B681B6C002BA5
:1051C00003D17B689B6C002B07D07B681B681A6837
:1051D0007B681B6822F008021A607B681B681A68EB
:1051E0007B681B6822F001021A6013E0FFF774FD70
:1051F0000246BB68D31A052B0CD97B6820225A655E
:105200007B68032283F835207B68002283F83420F2
:10521000032315E07B681B681B6803F00103002B68
:10522000E4D17B68DB6D3F229A40FB689A607B6823
:10523000012283F835207B68002283F83420002384
:1052400018461037BD4680BD80B483B000AF78608B
:105250007B6893F83530DBB2022B04D07B68802268
:105260005A6501230CE07B68052283F835207B68B2
:105270001B681A687B681B6822F001021A60002311
:1052800018460C37BD465DF8047B704780B586B084
:1052900000AF78600023BB608E4B1B688E4AA2FB78
:1052A00003239B0A7B617B689B6D3B613B691B68A9
:1052B000FB607B68DB6D08229A40FB681340002B83
:1052C0001AD07B681B681B6803F00403002B13D003
:1052D0007B681B681A687B681B6822F004021A60EE
:1052E0007B68DB6D08229A403B699A607B685B6D46
:1052F00043F001027B685A657B68DB6D01229A40AE
:10530000FB681340002B12D07B681B685B6903F0BD
:105310008003002B0BD07B68DB6D01229A403B6938
:105320009A607B685B6D43F002027B685A657B681C
:10533000DB6D04229A40FB681340002B12D07B687F
:105340001B681B6803F00203002B0BD07B68DB6D2E
:1053500004229A403B699A607B685B6D43F00402CB
:105360007B685A657B68DB6D10229A40FB681340AE
:10537000002B43D07B681B681B6803F00803002BDD
:105380003CD07B68DB6D10229A403B699A607B6859
:105390001B681B6803F48023002B18D07B681B68F4
:1053A0001B6803F40023002B08D17B681B6C002BC7
:1053B00024D07B681B6C786898471FE07B689B6CE7
:1053C000002B1BD07B689B6C7868984716E07B6845
:1053D0001B681B6803F48073002B07D17B681B6874
:1053E0001A687B681B6822F008021A607B681B6CD5
:1053F000002B03D07B681B6C786898477B68DB6D5B
:1054000020229A40FB681340002B00F08F807B68BD
:105410001B681B6803F01003002B00F087807B687B
:10542000DB6D20229A403B699A607B6893F83530A7
:10543000DBB2052B36D17B681B681A687B681B685A
:1054400022F016021A607B681B685A697B681B6829
:1054500022F080025A617B681B6C002B03D17B68B1
:105460009B6C002B07D07B681B681A687B681B68E5
:1054700022F008021A607B68DB6D3F229A403B698C
:105480009A607B68012283F835207B68002283F8CC
:1054900034207B681B6D002B7ED07B681B6D786889
:1054A000984779E07B681B681B6803F48023002B16
:1054B0001DD07B681B681B6803F40023002B0DD1F3
:1054C0007B685B6C002B31D07B685B6C786898479D
:1054D0002CE000BF34000020B5814E1B7B68DB6BE5
:1054E000002B23D07B68DB6B786898471EE07B68D5
:1054F0001B681B6803F48073002B0FD17B681B684B
:105500001A687B681B6822F010021A607B6801220F
:1055100083F835207B68002283F834207B68DB6BBE
:10552000002B03D07B68DB6B786898477B685B6DEA
:10553000002B32D07B685B6D03F00103002B22D07F
:105540007B68052283F835207B681B681A687B68B6
:105550001B6822F001021A60BB680133BB607A69E4
:105560009A4207D37B681B681B6803F00103002B7A
:10557000F2D100E000BF7B68012283F835207B6810
:10558000002283F834207B68DB6C002B05D07B681D
:10559000DB6C7868984700E000BF1837BD4680BDD7
:1055A00080B485B000AFF860B9607A603B60FB689A
:1055B0001B681A68FB681B6822F480221A60FB686B
:1055C0001B683A685A60FB689B68402B08D1FB68EF
:1055D0001B687A689A60FB681B68BA68DA6007E043
:1055E000FB681B68BA689A60FB681B687A68DA60B7
:1055F00000BF1437BD465DF8047B704780B485B0AA
:1056000000AF78607B681B68DBB2103B144AA2FBDA
:1056100003231B09FB60134AFB6813441B781A46DB
:105620007B68DA65FB68032B09D97B681B6823F468
:105630007F7323F003031A1D7B689A6507E07B687C
:105640001B6823F47F7323F003037A6893657B68F8
:105650009B6D18461437BD465DF8047B704700BF4C
:10566000ABAAAAAAB4E3000880B485B000AF786002
:105670000023FB737B689B6ABB607B689B69002B84
:105680001FD1BB68032B56D801A252F823F000BFEC
:10569000A1560008B3560008A15600083757000865
:1056A0007B68DB6A03F08073002B46D00123FB7319
:1056B00043E07B68DB6AB3F1C07F40D10123FB7319
:1056C0003DE07B689B69B3F5005F21D1BB68032B8C
:1056D00037D801A252F823F0E9560008EF56000827
:1056E000E9560008015700080123FB7330E07B688E
:1056F000DB6A03F08073002B25D00123FB7322E0CB
:105700007B68DB6AB3F1C07F1FD10123FB731CE010
:10571000BB68022B03D9BB68032B03D018E001231D
:10572000FB7315E07B68DB6A03F08073002B0ED0FF
:105730000123FB730BE000BF0AE000BF08E000BFDD
:1057400006E000BF04E000BF02E000BF00E000BFD1
:10575000FB7B18461437BD465DF8047B704700BFDD
:1057600080B489B000AF7860396000237B6100238A
:105770003B610023BB610023FB616BE10122FB69FC
:1057800002FA03F37B613B681B687A6913403B6153
:105790003A697B699A4240F05A813B685B6803F042
:1057A0000303012B05D03B685B6803F00303022B66
:1057B00030D17B689B68BB61FB695B00032202FA06
:1057C00003F3DB43BA691340BB613B68DA68FB69EA
:1057D0005B0002FA03F3BA691343BB617B68BA69E1
:1057E0009A607B685B68BB610122FB6902FA03F384
:1057F000DB43BA691340BB613B685B681B0903F07C
:105800000102FB6902FA03F3BA691343BB617B68C7
:10581000BA695A603B685B6803F00303032B17D037
:105820007B68DB68BB61FB695B00032202FA03F360
:10583000DB43BA691340BB613B689A68FB695B0054
:1058400002FA03F3BA691343BB617B68BA69DA6091
:105850003B685B6803F00303022B23D1FB69DA0882
:105860007B68083253F82230BB61FB6903F0070301
:105870009B000F2202FA03F3DB43BA691340BB61BA
:105880003B681A69FB6903F007039B0002FA03F304
:10589000BA691343BB61FB69DA087B680832B969EE
:1058A00043F822107B681B68BB61FB695B00032225
:1058B00002FA03F3DB43BA691340BB613B685B68E0
:1058C00003F00302FB695B0002FA03F3BA691343B6
:1058D000BB617B68BA691A603B685B6803F440335C
:1058E000002B00F0B4800023FB60604B5B6C5F4AD0
:1058F00043F4804353645D4B5B6C03F48043FB6073
:10590000FB685B4AFB699B08023352F82330BB619A
:10591000FB6903F003039B000F2202FA03F3DB434E
:10592000BA691340BB617B68524A93422BD07B68B3
:10593000514A934225D07B68504A93421FD07B68DE
:105940004F4A934219D07B684E4A934213D07B68EA
:105950004D4A93420DD07B684C4A934207D07B68F6
:105960004B4A934201D107230EE008230CE00623A3
:105970000AE0052308E0042306E0032304E00223F1
:1059800002E0012300E00023FA6902F00302920022
:105990009340BA691343BB613549FB699B080233E5
:1059A000BA6941F823203B4B1B68BB613B69DB4371
:1059B000BA691340BB613B685B6803F48033002B1A
:1059C00003D0BA693B691343BB61324ABB691360B8
:1059D000304B5B68BB613B69DB43BA691340BB6119
:1059E0003B685B6803F40033002B03D0BA693B6962
:1059F0001343BB61274ABB695360264B9B68BB615D
:105A00003B69DB43BA691340BB613B685B6803F4E5
:105A10008013002B03D0BA693B691343BB611D4A55
:105A2000BB6993601B4BDB68BB613B69DB43BA69B5
:105A30001340BB613B685B6803F40013002B03D089
:105A4000BA693B691343BB61124ABB69D360FB6906
:105A50000133FB61FB690F2B7FF690AE00BF00BFE7
:105A60002437BD465DF8047B704700BF0038024014
:105A700000380140000002400004024000080240DB
:105A8000000C0240001002400014024000180240C6
:105A9000001C0240003C014080B485B000AF78603B
:105AA0000B467B807B681A697B881340002B02D0F1
:105AB0000123FB7301E00023FB73FB7B18461437C3
:105AC000BD465DF8047B704780B483B000AF78605A
:105AD0000B467B8013467B707B78002B03D07A8843
