:020000040800F2
:1000000000000220CD3300083133000833330008EC
:10001000353300083733000839330008000000008A
:1000200000000000000000000000000061730008F4
:100030003B33000800000000F17300083D33000866
:100040001D3400081D3400081D3400081D3400084C
:100050001D3400081D3400081D3400081D3400083C
:100060001D3400081D3400081D3400081D3400082C
:10007000553300081D3400081D3400081D340008E5
:100080001D3400081D3400081D3400081D3400080C
:100090001D3400081D3400081D3400081D340008FC
:1000A0001D3400081D3400081D3400081D340008EC
:1000B0001D3400081D340008613300081D34000899
:1000C0001D3400081D3400081D3400081D340008CC
:1000D0001D3400081D3400081D3400086D3300086D
:1000E0001D3400081D3400081D3400081D340008AC
:1000F0001D3400081D3400081D3400081D3400089C
:100100001D3400081D3400081D3400081D3400088B
:100110001D3400081D3400081D3400081D3400087B
:100120001D3400081D3400081D3400081D3400086B
:100130001D3400081D3400081D3400081D3400085B
:100140001D3400081D3400081D3400081D3400084B
:100150001D3400081D3400081D3400081D3400083B
:100160001D3400081D3400081D3400081D3400082B
:100170001D3400081D3400081D3400080000000074
:080180001D3400081D340008C5
:1001900010B5054C237833B9044B13B10448AFF3C1
:1001A00000800123237010BD90000020000000009B
:1001B0005C81000808B5034B1BB103490348AFF34A
:1001C000008008BD00000000940000205C81000851
:1001D000034613F8012B002AFBD1181A0138704787
:1001E00001F0FF01102A2BDB10F0070F08D010F8E8
:1001F000013B013A8B422DD010F0070F42B3F6D1EC
:10020000F0B441EA012141EA014122F007047FF004
:1002100000070023F0E80256083C85EA010586EA5B
:10022000010685FA47F5A3FA87F586FA47F6A5FA97
:1002300087F68EB9EED1F0BC01F0FF0102F00702A3
:1002400032B110F8013B013A83EA010313B1F8D14E
:100250000020704701387047002D06BF354603382F
:10026000073815F0010F07D1013015F4807F02BF68
:10027000013015F4C03F0130F0BC0138704700BFB9
:1002800081F0004102E000BF83F0004330B54FEA47
:1002900041044FEA430594EA050F08BF90EA020FB4
:1002A0001FBF54EA000C55EA020C7FEA645C7FEA47
:1002B000655C00F0E2804FEA5454D4EB5555B8BF6A
:1002C0006D420CDD2C4480EA020281EA030382EADB
:1002D000000083EA010180EA020281EA0303362D6D
:1002E00088BF30BD11F0004F4FEA01314FF4801C40
:1002F0004CEA113102D0404261EB410113F0004F52
:100300004FEA03334CEA133302D0524263EB430308
:1003100094EA050F00F0A780A4F10104D5F1200EA6
:100320000DDB02FA0EFC22FA05F2801841F1000101
:1003300003FA0EF2801843FA05F359410EE0A5F1D5
:1003400020050EF1200E012A03FA0EFC28BF4CF006
:10035000020C43FA05F3C01851EBE37101F00045BC
:1003600007D54FF0000EDCF1000C7EEB00006EEBC9
:100370000101B1F5801F1BD3B1F5001F0CD3490853
:100380005FEA30004FEA3C0C04F101044FEA4452AA
:1003900012F5800F80F09A80BCF1004F08BF5FEA31
:1003A000500C50F1000041EB045141EA050130BD11
:1003B0005FEA4C0C404141EB0101013C28BFB1F523
:1003C000801FE9D291F0000F04BF01460020B1FA6E
:1003D00081F308BF2033A3F10B03B3F120020CDA41
:1003E0000C3208DD02F1140CC2F10C0201FA0CF01F
:1003F00021FA02F10CE002F11402D8BFC2F1200C84
:1004000001FA02F120FA0CFCDCBF41EA0C01904039
:10041000E41AA2BF01EB0451294330BD6FEA040482
:100420001F3C1CDA0C340EDC04F11404C4F120026D
:1004300020FA04F001FA02F340EA030021FA04F37F
:1004400045EA030130BDC4F10C04C4F1200220FAD6
:1004500002F001FA04F340EA0300294630BD21FA14
:1004600004F0294630BD94F0000F83F4801306BFDA
:1004700081F480110134013D4EE77FEA645C18BFCE
:100480007FEA655C29D094EA050F08BF90EA020F65
:1004900005D054EA000C04BF1946104630BD91EA5D
:1004A000030F1EBF0021002030BD5FEA545C05D160
:1004B0004000494128BF41F0004130BD14F580049F
:1004C0003CBF01F5801130BD01F0004545F0FE4113
:1004D00041F470014FF0000030BD7FEA645C1ABF48
:1004E000194610467FEA655C1CBF0B46024650EA7F
:1004F000013406BF52EA033591EA030F41F40021AB
:1005000030BD00BF90F0000F04BF0021704730B530
:100510004FF4806404F132044FF000054FF0000105
:1005200050E700BF90F0000F04BF0021704730B5C6
:100530004FF4806404F1320410F0004548BF40429B
:100540004FF000013EE700BF42004FEAE2014FEAF0
:1005500031014FEA02701FBF12F07F4393F07F4FCB
:1005600081F06051704732F07F4208BF704793F0CE
:100570007F4F04BF41F40021704730B54FF46074E1
:1005800001F0004521F000411CE700BF50EA0102E4
:1005900008BF704730B54FF000050AE050EA01028D
:1005A00008BF704730B511F0004502D5404261EBFD
:1005B00041014FF4806404F132045FEA915C3FF43E
:1005C000D8AE4FF003025FEADC0C18BF03325FEADB
:1005D000DC0C18BF033202EBDC02C2F1200300FA8C
:1005E00003FC20FA02F001FA03FE40EA0E0021FAB1
:1005F00002F11444BDE600BF70B54FF0FF0C4CF49F
:10060000E06C1CEA11541DBF1CEA135594EA0C0F50
:1006100095EA0C0F00F0DEF82C4481EA030621EA8B
:100620004C5123EA4C5350EA013518BF52EA0335C6
:1006300041F4801143F4801338D0A0FB02CE4FF078
:100640000005E1FB02E506F00042E0FB03E54FF0A8
:100650000006E1FB03569CF0000F18BF4EF0010EA0
:10066000A4F1FF04B6F5007F64F5407404D25FEA9C
:100670004E0E6D4146EB060642EAC62141EA55514F
:100680004FEAC52040EA5E504FEACE2EB4F1FD0C91
:1006900088BFBCF5E06F1ED8BEF1004F08BF5FEA0F
:1006A000500E50F1000041EB045170BD06F00046C1
:1006B00046EA010140EA020081EA0301B4EB5C046E
:1006C000C2BFD4EB0C0541EA045170BD41F4801166
:1006D0004FF0000E013C00F3AB8014F1360FDEBF8B
:1006E000002001F0004170BDC4F10004203C35DA67
:1006F0000C341BDC04F11404C4F1200500FA05F3EA
:1007000020FA04F001FA05F240EA020001F000428A
:1007100021F0004110EBD37021FA04F642EB060100
:100720005EEA430E08BF20EAD37070BDC4F10C042A
:10073000C4F1200500FA04F320FA05F001FA04F2EE
:1007400040EA020001F0004110EBD37041F10001DA
:100750005EEA430E08BF20EAD37070BDC4F12005E5
:1007600000FA05F24EEA020E20FA04F301FA05F24D
:1007700043EA020321FA04F001F0004121FA04F2F5
:1007800020EA020000EBD3705EEA430E08BF20EAC5
:10079000D37070BD94F0000F0FD101F000464000FF
:1007A00041EB010111F4801F08BF013CF7D041EA81
:1007B000060195F0000F18BF704703F00046520085
:1007C00043EB030313F4801F08BF013DF7D043EA56
:1007D0000603704794EA0C0F0CEA135518BF95EA0C
:1007E0000C0F0CD050EA410618BF52EA4306D1D193
:1007F00081EA030101F000414FF0000070BD50EAB2
:10080000410606BF1046194652EA430619D094EA3B
:100810000C0F02D150EA013613D195EA0C0F05D125
:1008200052EA03361CBF104619460AD181EA030179
:1008300001F0004141F0FE4141F470014FF0000031
:1008400070BD41F0FE4141F4780170BD70B54FF0CC
:10085000FF0C4CF4E06C1CEA11541DBF1CEA13554C
:1008600094EA0C0F95EA0C0F00F0A7F8A4EB05042E
:1008700081EA030E52EA03354FEA013100F0888025
:100880004FEA03334FF0805545EA131343EA1263EE
:100890004FEA022245EA111545EA10654FEA0026A3
:1008A0000EF000419D4208BF964244F1FD0404F55C
:1008B000407402D25B084FEA3202B61A65EB0305B8
:1008C0005B084FEA32024FF480104FF4002CB6EB75
:1008D000020E75EB030E22BFB61A754640EA0C00F5
:1008E0005B084FEA3202B6EB020E75EB030E22BF35
:1008F000B61A754640EA5C005B084FEA3202B6EB76
:10090000020E75EB030E22BFB61A754640EA9C0034
:100910005B084FEA3202B6EB020E75EB030E22BF04
:10092000B61A754640EADC0055EA060E18D04FEAC2
:10093000051545EA16754FEA06164FEAC30343EA62
:1009400052734FEAC2025FEA1C1CC0D111F4801F2F
:100950000BD141EA00014FF000004FF0004CB6E728
:1009600011F4801F04BF01430020B4F1FD0C88BFC7
:10097000BCF5E06F3FF6AFAEB5EB030C04BFB6EBD2
:10098000020C5FEA500C50F1000041EB045170BDC5
:100990000EF0004E4EEA113114EB5C04C2BFD4EBF2
:1009A0000C0541EA045170BD41F480114FF0000E76
:1009B000013C90E645EA060E8DE60CEA135594EAF2
:1009C0000C0F08BF95EA0C0F3FF43BAF94EA0C0FF5
:1009D0000AD150EA01347FF434AF95EA0C0F7FF46A
:1009E00025AF104619462CE795EA0C0F06D152EABE
:1009F00003353FF4FDAE1046194622E750EA4106A2
:100A000018BF52EA43067FF4C5AE50EA41047FF4B2
:100A10000DAF52EA43057FF4EBAE12E74FF0FF3C17
:100A200006E000BF4FF0010C02E000BF4FF0010CE8
:100A30004DF804CD4FEA410C7FEA6C5C4FEA430C61
:100A400018BF7FEA6C5C1BD001B050EA410C0CBFB0
:100A500052EA430C91EA030F02BF90EA020F002012
:100A6000704710F1000F91EA030F58BF994208BF79
:100A700090422CBFD8176FEAE37040F00100704736
:100A80004FEA410C7FEA6C5C02D150EA013C07D18D
:100A90004FEA430C7FEA6C5CD6D152EA033CD3D0D8
:100AA0005DF8040B704700BF8446104662468C46D2
:100AB0001946634600E000BF01B5FFF7B7FF002805
:100AC00048BF10F1000F01BD4DF808EDFFF7F4FF2E
:100AD0000CBF012000205DF808FB00BF4DF808EDB9
:100AE000FFF7EAFF34BF012000205DF808FB00BFDC
:100AF0004DF808EDFFF7E0FF94BF012000205DF8FE
:100B000008FB00BF4DF808EDFFF7CEFF94BF0120B2
:100B100000205DF808FB00BF4DF808EDFFF7C4FFAB
:100B200034BF012000205DF808FB00BF4FEA4102FE
:100B300012F5001215D211D56FF47873B3EB62522F
:100B400012D94FEAC12343F0004343EA505311F056
:100B5000004F23FA02F018BF404270474FF00000E8
:100B6000704750EA013005D111F0004008BF6FF026
:100B7000004070474FF00000704700BF4A0011D29C
:100B800012F5001211D20DD56FF47873B3EB6252E7
:100B90000ED44FEAC12343F0004343EA505323FAF3
:100BA00002F070474FF00000704750EA013002D168
:100BB0004FF0FF3070474FF0000070474FEA41029E
:100BC000B2F1E04324BFB3F5001CDCF1FE5C0DD9AB
:100BD00001F0004C4FEAC0024CEA5070B2F1004FF5
:100BE00040EB830008BF20F00100704711F0804FF8
:100BF00021D113F13872BCBF01F00040704741F4BD
:100C000080114FEA5252C2F11802C2F1200C10FAC0
:100C10000CF320FA02F018BF40F001004FEAC123A4
:100C20004FEAD32303FA0CFC40EA0C0023FA02F348
:100C30004FEA4303CCE77FEA625307D150EA01331E
:100C40001EBF4FF0FE4040F44000704701F00040EE
:100C500040F0FE4040F40000704700BF53B94AB96D
:100C6000002908BF00281CBF4FF0FF314FF0FF30B4
:100C700000F070B9ADF1080C6DE904CE00F006F893
:100C8000DDF804E0DDE9022304B070472DE9F04708
:100C9000089E0D4604460F46002B4AD18A429446D0
:100CA00065D9B2FA82F343B102FA03FCC3F1200220
:100CB0009F4020FA02F217439C404FEA1C4E1FFA55
:100CC0008CF5B7FBFEF1220C0EFB117742EA0742CE
:100CD00001FB05F090420AD91CEB020201F1FF373B
:100CE00080F01C81904240F2198102396244121A4C
:100CF000A4B2B2FBFEF00EFB102244EA024400FB59
:100D000005F5A5420AD91CEB040400F1FF3280F07E
:100D10000781A54240F204816444023840EA014060
:100D2000641B00211EB1DC400023C6E90043BDE87E
:100D3000F0878B4208D9002E00F0ED800021C6E933
:100D400000050846BDE8F087B3FA83F1002949D1D0
:100D5000AB4202D3824200F2F880841A65EB0302B0
:100D600001201746002EE2D0C6E90047DFE702B9AE
:100D7000FFDEB2FA82F3002B40F090808A1A4FEA2D
:100D80001C471FFA8CFE0121B2FBF7F507FB15206B
:100D9000220C42EA00420EFB05F0904208D91CEBFF
:100DA000020205F1FF3802D2904200F2CB804546A4
:100DB000121AA4B2B2FBF7F007FB102244EA024475
:100DC0000EFB00FEA64508D91CEB040400F1FF321F
:100DD00002D2A64500F2BB801046A4EB0E0440EA06
:100DE00005409FE7C1F120078B4022FA07FC4CEA3F
:100DF000030C05FA01F420FA07F3FD404FEA1C4901
:100E00002343B5FBF9F81FFA8CFE09FB18551C0C9F
:100E100044EA054408FB0EF5A54202FA01F200FA85
:100E200001F00BD91CEB040408F1FF3A80F0888034
:100E3000A54240F28580A8F102086444641B9DB27B
:100E4000B4FBF9F309FB134445EA044403FB0EFE2B
:100E5000A64508D91CEB040403F1FF356CD2A64566
:100E60006AD9023B644443EA0843A3FB0295A4EB1E
:100E70000E04AC42C846AE4656D353D056B1B0EB82
:100E8000080264EB0E0404FA07F7CA40CC4017438B
:100E9000C6E9007418460021BDE8F087C3F12001BF
:100EA00002FA03FC20FA01F225FA01F19D402A43DF
:100EB0004FEA1C471FFA8CFEB1FBF7F007FB101539
:100EC000110C41EA054100FB0EF58D4204FA03F4D2
:100ED00008D91CEB010100F1FF382FD28D422DD92A
:100EE00002386144491B92B2B1FBF7F507FB1511BB
:100EF00042EA014205FB0EF1914208D91CEB0202C5
:100F000005F1FF3816D2914214D9023D6244521ABB
:100F100045EA004138E73146304608E73946E6E61B
:100F20001046FBE64845A9D2B9EB020865EB0C0E6A
:100F3000013BA3E74546EAE72B4694E74046D1E765
:100F4000D0467BE7023D624432E708460AE7644444
:100F5000023842E7704700BF7FB501238DF81720A4
:100F60004FF0FF32CDE901320DF117020092006817
:100F70000A46D02103F06EF807B05DF804FB0000CC
:100F80001FB54FF0FF3C0123CDE9013C0092006802
:100F90000A46D02103F0EEF8024B187005B05DF858
:100FA00004FB00BFD4000020F0B5744B89B003AE41
:100FB00004468C4603F1100E3546186859683746CA
:100FC00003C7083373453E46F7D11B783B700023B7
:100FD000C4E900C27F211A462046ADF81D308DF8C5
:100FE0001F30FFF7B9FF664E0146307030B16549DA
:100FF000284606F05BFC002009B0F0BD0DF10702A9
:101000002046FFF7BDFF0746307008B15E49EFE7A5
:101010009DF807205D4902A806F0F4FB02A92846C6
:1010200006F044FC9DF80C308DF81C70203B8DF8C8
:1010300018309DF80D30203B8DF8193040F60D2307
:10104000ADF81A30ADF80C30284649238DF80E3033
:10105000FFF7BEF84FF0FF3382B22946606804F014
:1010600073FB3A467F212046FFF776FF307008B1C8
:101070004749BDE7F12206212046FFF76DFF30709A
:1010800008B14449B4E70A2002F01AFA0122062105
:101090002046FFF761FF307008B13F49A8E70A20FA
:1010A00002F00EFA3F2207212046FFF755FF0746C0
:1010B000307008B139499BE70A2002F001FA3A463C
:1010C00007212046FFF748FF307008B134498FE709
:1010D000012210212046FFF73FFF7F2130702022A0
:1010E0002046FFF739FF0146307008B12D497FE7F0
:1010F00004222046FFF730FF307008B12A4977E715
:10110000332201212046FFF727FF0746307008B140
:1011100026496DE7072211212046FFF71DFF3A46B9
:10112000307010212046FFF717FF307008B12049BA
:101130005EE7312214212046FFF70EFF074630708C
:1011400008B11C4954E7024653212046FFF704FF2B
:1011500020463A467F21FFF7FFFE0446307008B173
:10116000154945E7642002F0ABF9144BC3E900448C
:101170009C60134BC3E900449C603CE77481000809
:10118000D400002096810008A0810008AA810008F0
:10119000AD810008B7810008C2810008CD81000838
:1011A000D8810008E3810008ED810008F78100087C
:1011B000018200080B82000816820008B800002097
:1011C000AC0000202DE9F743382101AA4FF00008B8
:1011D0000546ADF80480FFF7D3FE3F4C3F4F20702B
:1011E0000DF1050237212846FFF7CAFE20703C6842
:1011F00034B905F09DFB3860204603B0BDE8F083AC
:1012000005F096FB364A9DF80430B2F90420DFF869
:10121000E0E03E68DFF8DCC038609B1A9DF80520EE
:10122000DEF80440DCF80470DCF80010CEF808406A
:1012300043EA0223B3F5004FA0EB0606DEF80000F8
:10124000CCF80870A5BFC3F57F4243464246FF3243
:101250009842CEF80400CCF80410CEF80030CCF858
:10126000002034DC844222DC034691422BDC8F4296
:1012700023DC0A46D41A1B4B1868201AFFF752F9D0
:10128000194B0022FFF7B8F9804630468946FFF730
:1012900039F902460B4640464946FFF7ADF9134B74
:1012A0000022FFF7D3FAFFF789FCE861A4E7984230
:1012B000DAD0A342A8BF2346D7E79142D9D0BA4299
:1012C000A8BF3A46D6E78F42D3DA3A46D2E78442FD
:1012D000CADA2346C9E700BFD4000020D0000020AE
:1012E000C4000020CC00002000408F3F00408F4011
:1012F000AC000020B800002070B506464FF4007422
:101300002DED028BB0EE408AF0EE608A3046013C53
:10131000FFF758FFB0EE480AF0EE680AA4B204F0F6
:101320007CFD002CF2D14FF400653046FFF74AFFF8
:10133000B0EE480AF0EE680A013DADB2044404F094
:101340006CFD002DF1D1BDEC028B024BE4121C6050
:1013500070BD00BFCC0000207FB50B4E0B4D0C4C78
:101360003246294601A806F04DFA01AA14210A20A6
:1013700001F066FB20464FF4806102F0DEFB0120A5
:1013800004F03FFDECE700BFD500002021820008FB
:10139000001002407FB5084C214601A806F086FAED
:1013A0000A21084601AA01F04BFB01F0B1FA012025
:1013B00004F027FDF0E700BF2982000800000000CC
:1013C0002DE9F04F2DED0A8B00218DB0C048C14CA6
:1013D00003F0E0FF0421BE4803F0DCFFBE480C210F
:1013E00003F0D8FF2378002B00F02281BA4B1B6852
:1013F00094221A64B94B0022CDE90623B84B00248D
:10140000D3E900010025CDE90A45FFF78FFBB54B75
:10141000B54918600522B54804F068FC9FEDA29B11
:101420009FEDA3AB45EC1B4B0024B0EE4BCAF0EE96
:101430006BCAAD4E502004F0E4FC30786428F8D03C
:1014400071786429F5D0B378642BF2D0F278642AED
:10145000EFD03579642DECD0303B03EB830303EB05
:101460008303303D303A05EB830502EB820205EB46
:10147000420555282DB240F0DF80532938D14FF472
:10148000967004F0BEFC05F07DFF994B99491D68EC
:1014900033793035ED1AF378303B03EB8303A5EB5A
:1014A0004305B378303BAAB221F8132046233370AA
:1014B00057230A212DB27370642395FBF3F3DBB23B
:1014C000B3FBF1F001FB10333033B37095FBF1F354
:1014D000DBB2B3FBF1F001FB10333033D2B2F37067
:1014E000B2FBF1F301FB13223032327105F06AFFD7
:1014F0007D4A13785778462B40F00E814C2F40F0F0
:101500001281784B1868401B1860FFF70BF8CDE983
:1015100006010124704B784E1A6833784C2F40F046
:101520001E815B21022B116440F013814FF4FA708D
:1015300004F067FC002333706B4B5A78572A00F095
:101540009D829FED5D7B6D4AB0EE472AF0EE672AE3
:101550000125002382ED007B9FED591B9FED5A0B67
:10156000CDE900535E49664806AB01F0CDFC294643
:101570006348644D01F0D5FB61480A2101F0F8FC95
:10158000614B6249D3E90067002032463B46FEF7D3
:101590007BFE5E4B41EC180B002230463946FEF7CD
:1015A00073FEB0EE481AF0EE681A41EC100B544886
:1015B00001F0C4FB2046FEF7A5FF02460B460020C3
:1015C0005349FEF761FE02460B46FEF75FFE41EC13
:1015D000180B434FDDE90601D7E90023FEF754FE5F
:1015E00053EC182BFFF708F800220023FFF794FABA
:1015F0000646002840F0CE8005F0C4FE344B1B6840
:101600005E639E6305F0DEFE314B42491B6837483E
:1016100000225A639A63344B64221A705A709A708B
:10162000DA701A714FF0FF33022204F08DF800E7F0
:10163000642004F0E6FBD5E652287FF459AF542924
:101640007FF456AF05F09EFE462333705723737028
:10165000F3783179B278303B303903EB830301EB17
:101660004303303A234931F8122013440A211DB2B2
:10167000642295FBF2F2D2B2B2FBF1F001FB102230
:101680003032B27095FBF1F2D2B2B2FBF1F001FB55
:1016900010223032DBB2F270B3FBF1F201FB1233F5
:1016A0003033337122E700BF7B14AE47E17A943FB9
:1016B000BA490C022B87863F0000000000000000A2
:1016C0009A9999999999B93F1B2FDD240681953FE5
:1016D0004C040020FC0400202C0300200080564015
:1016E0006002002024050020D50000209404002082
:1016F000E400002010050020200000200001002050
:10170000E801002000100240180000200000F03F17
:101710000000E03F2D820008422B10D1522F3FF4F1
:10172000F0AE4C2F00E0522F09D1AB4B1868284483
:101730001860FEF7F7FE0024CDE90601EAE6572F10
:101740007FF4E8AEA44B1868FEF7ECFECDE9060185
:10175000E0E6012B7FF4EEAE4FF48770E8E6522FFF
:101760000DD1F02111642BB94FF4FA7004F049FB4C
:101770000223E0E6012BFBD14FF48770F6E79421BA
:1017800013F0FD0F116403D14FF4877004F039FB9F
:101790000123D0E64FF48061284602F0CEF98F484D
:1017A00001F01BFA05F0EEFD8D4B5B784C2B40F001
:1017B000A180DFF844820022D8E900010023FFF76E
:1017C0008DF90646002862D08648DFF83492002260
:1017D000042102F0ADF983480122082102F0A8F9A2
:1017E00080480022202102F0A3F97E480122102126
:1017F00002F09EF9D7E90023DDE90601FEF744FD7A
:1018000053EC182BFEF7F8FE774B0022FFF766F932
:10181000764B30B31888FEF775FE754BD3F800A0F1
:10182000744BD9E90089D3E9002306460F46FEF739
:10183000E3FE42464B46FEF7DFFEFFF79FF94246C6
:10184000CAF834004B4630463946FEF7D5FEFFF75E
:1018500095F9CAF8380005F0B5FD0A2004F0DDFA64
:10186000B7E61888FEF74EFED8E9002306460F4675
:10187000D9E90001FEF708FD5D4BD3F800A05D4BF0
:1018800080468946D3E9002330463946CFE70246F1
:1018900008215448DFF8689102F04AF951480122C2
:1018A000042102F045F94F483246102102F040F978
:1018B0004C480122202102F03BF9D7E90023DDE961
:1018C0000601FEF7E1FC53EC182BFEF795FE464BA4
:1018D0000022FFF703F9454B00289BD11888FEF73B
:1018E00011FED9E9002306460F46D8E90001FEF7AC
:1018F000CDFCC1E7522BAED13F4E0022D6E900010C
:101900000023FFF7EBF8804600287BD03548DFF84E
:10191000F0A00022082102F00BF932480122042134
:1019200002F006F92F480022102102F001F92D489B
:101930000122202102F0FCF8D7E90023DDE90601AD
:10194000FEF7A2FC53EC182BFEF756FE264B0022A6
:10195000FFF7C4F8254BD8B11888FEF7D3FDDAE9B4
:101960000089234B4246D3F800A04B4606460F465B
:10197000FEF742FEFFF702F9204BCAF83400D3E924
:10198000002330463946FEF737FE42464B465CE7B9
:101990001888FEF7B7FDD6E9002380468946DAE9C4
:1019A0000001FEF771FC124B0246D3F800A0064678
:1019B0000B460F4640464946FEF71EFEFFF7DEF88F
:1019C0000E4BCAF83400D3E9002340464946FEF7DF
:1019D00013FE32463B4638E724050020E80100208C
:1019E000D50000200000024000003E4024000020FE
:1019F0004C040020000000200001002028000020EE
:101A000018000020024604211848DFF86CA002F0FC
:101A10008FF816480122082102F08AF8134842463E
:101A2000202102F085F811480122102102F080F8EF
:101A3000D7E90023DDE90601FEF726FC53EC182B5D
:101A4000FEF7DAFD0A4B0022FFF748F8094B0028A1
:101A500082D11888FEF756FDDAE9002380468946D0
:101A6000D6E90001FEF712FC9DE700BF000002402E
:101A700000003E4024000020180000209FEDBE7BA7
:101A8000C94A1B7882ED007BC84A0026462B1660A7
:101A900040F04681C6483246042102F049F8C44865
:101AA0000122082102F044F8C1483246202102F008
:101AB0003FF80122BE48102102F03AF82846FEF70E
:101AC00031FDAFA3D3E90023FEF796FDCDE90A016E
:101AD00001249FEDA97BB0EE491AF0EE691AB0EE31
:101AE0004A0AF0EE6A0ADFF8F892B0EE472AF0EE02
:101AF000672A4FF00108002589ED007B0AAB08AA90
:101B0000A949AC48CDE900858DED087B01F0FCF9D1
:101B1000A848414601F005F9A6480A2101F028FA33
:101B2000A54BA649D3E90067002032463B46FEF7A5
:101B3000ABFBA24B41EC180B002230463946FEF7B6
:101B4000A3FBB0EE481AF0EE681A41EC100B99486E
:101B500001F0F4F8B0EE491AF0EE691A9FED862B09
:101B60009FED890B06AB4A4695499648CDE900851D
:101B700001F0CAF99348414601F0D3F891480A218F
:101B800001F0F6F9904B8F48D3E9002303F10041AF
:101B90000492059143EC112B9DED040B01F0CEF85E
:101BA0008A4B1B6820465D639D63FEF7ABFC884B48
:101BB0000022FEF769FB02460B46FEF767FB8246F2
:101BC0008B46794BDDE90A01D3E90023FEF75CFB84
:101BD00052465B46FEF710FD00220023FEF79CFFF5
:101BE00000283FF411AD734800F0F7FF754800F08E
:101BF000F4FF784B1B78462B40F0F680764B1D683F
:101C00006F4BDDE90601D3E90023FEF73DFB60A33E
:101C1000D3E90023FEF7F0FC5FA3D3E90023FEF72E
:101C200035FBFEF7ABFF6D4B28641888FEF76AFCA6
:101C30006B4BD3E900890646604B0F4600224046B5
:101C40004946FEF723FB32463B46FEF7D5FC4246AB
:101C500041EC1C0B4B4659490020FEF715FB324660
:101C60003B46FEF7C9FC41EC1B0B05F08BFBDDE9A5
:101C7000080100220023FEF731FF0546002800F08E
:101C800011814B480022082101F052FF48480122EF
:101C9000042101F04DFF46480022102101F048FFC9
:101CA00043480122202101F043FF3F4BDDE90A01B7
:101CB000D3E90023FEF7E8FA52465B46FEF79CFCA8
:101CC000484B002280468946FEF708FF3F4B3A4AC0
:101CD0001D68D2E90067002800F0BB8053EC1C2B84
:101CE00030463946FEF788FC2DA3D3E90023FEF7E2
:101CF00083FCFEF743FF53EC1B2B686339463046E9
:101D0000FEF77AFC26A3D3E90023FEF775FCFEF765
:101D100035FFA86305F056FB0A2004F07EF850E773
:101D2000422B7FF4D6AE22483246082101F000FF54
:101D30001F480122042101F0FBFE1D4832461021FC
:101D400001F0F6FE01221A48202101F0F1FE28469A
:101D5000FEF7E8FB01F100430393029008A3D3E9E7
:101D60000023DDE90201FEF747FC3446CDE90A0114
:101D7000AFE600BFAFF300800000000000000000ED
:101D8000295C8FC2F528F03F9A9999999999A93FB2
:101D90009A99999999990140CDCCCCCCCC8C624040
:101DA000333333333333E33F2805002074020020FC
:101DB0000000024078010020100000200000F03FE9
:101DC0006002002008010020080000204C040020D0
:101DD0000000E03FD50000202C030020220000205E
:101DE0000001002000002440422B7FF43EAF504B06
:101DF00050491D68D1E90001DDE90623FEF744FAE8
:101E000047A3D3E90023FEF7F7FB47A3D3E9002359
:101E1000FEF73CFAFEF7B2FE474B28641888FEF73F
:101E200071FB464BD3E9008906460F4642464B46B6
:101E300043490020FEF728FA32463B46FEF7DCFB1A
:101E40003F4B41EC1C0B002240464946FEF71EFA70
:101E500005E73C4B002240464946FEF73FFE68B18D
:101E600032463B4651EC1C0BFEF7C6FBFEF786FEE6
:101E7000324668633B4651EC1B0B46E7DDE908231D
:101E800030463946FEF700FA53EC1C2B06460F4647
:101E9000FEF7B2FBFEF772FE53EC1B2B686339466C
:101EA000304632E702460421274801F041FE264829
:101EB0000122082101F03CFE2A462348202101F09E
:101EC00037FE21480122102101F032FE1F4BDDE9CF
:101ED0000A01D3E90023FEF7D7F952465B46FEF725
:101EE0008BFB1B4B002280468946FEF7F7FD194B02
:101EF000194A1D68D2E9006700287FF4EFAE114B44
:101F0000002240464946FEF7E9FD0028A8D1DDE958
:101F1000082330463946FEF7B9F9B5E7AFF300803C
:101F20009A99999999990140CDCCCCCCCC8C6240AE
:101F30002C0300206002002022000020000100206D
:101F40000000F03F0000374000000240280500205C
:101F5000000024404C04002010000020000000007D
:101F60002DE9F04F2DED048B734A7449744889B004
:101F7000FFF71AF805F006FA724903A805F096FC77
:101F800003AA1E210A2000F05BFD4FF4FA6003F063
:101F900038FF9FED630B6A48FFF7AEF94FF4FA6024
:101FA00003F02FFF05F00EFA674B684801223C2131
:101FB0001A709FED5D8B02F024FD9FED599B4FF051
:101FC000FF34A0465E4DDFF8A0A1DFF8A09105F038
:101FD000D9F92846FFF7F6F805F0F4F9E869FEF7B5
:101FE000B3FADAE90023FEF751F9584B06460F46DB
:101FF000B8F1FF3FCAE90067C9E90067DFF87081FF
:102000001B6801D0621C72D15C6A2546D8F80000BA
:10201000DFF860B1FEF786FA45A3D3E90023FEF7A7
:10202000EBFACBE9000139463046FEF77FFD4FF46D
:102030007A724243464903A805F0E4FB1E210A20B8
:1020400003AA00F0FDFC43484FF4807101F06AFDE3
:1020500040BB414BC8F8000018608BED008B8AED47
:10206000008B89ED008B05F08DF9364903A805F04A
:102070001DFC03AA1E210A2000F0E2FC4FF4FA60C6
:1020800003F0BFFEB0EE490AF0EE690A2C48FFF7F4
:1020900033F94FF4FA6003F0B4FE05F093F94FF012
:1020A000FF352C462D4B0022D9E90001FEF7A4FA9A
:1020B000FEF73CFD2A490246684605F0A3FB4FF0B7
:1020C000FF33082269461C4803F03EFB2549684659
:1020D00005F0ECFB4FF0FF3302226946164803F08F
:1020E00033FB0A20A04603F098FE2C466AE75D6A9F
:1020F0001B68DB060DD5AC4201DB631B03E0C5F5B5
:102100007F43FF332344D8F800201A44C8F8002046
:102110007CE7AC42F1DD05F57F43FF33E31AF2E7DC
:10212000000000000000354000000000000000003A
:10213000994B7CF3E9CE8A3F94040020D80200201A
:10214000D80400202F820008FC0400207403002023
:102150003D820008000C0240240500200000594088
:1021600049820008138200086802002060020020F3
:102170007402002028050020034B1B6800225A62CD
:102180005A6A8242FCD37047040400200000000019
:102190002DE9F041037F022B054612D13C4E3378E6
:1021A0008BB9042102F086FC3A4B1860012333708E
:1021B0002B681A6A22F0A0021A621A6A42F0200200
:1021C0001A62BDE8F081012BFBD1042102F072FC00
:1021D000314B18602B6800225A622E4B2F4A1B6825
:1021E000984239D9C31A13602D4F1068D7F804806C
:1021F0003C68C7F808807C60FEF784F91EA3D3E929
:102200000023FEF7F9F9274B0022FEF7F5F91CA38E
:10221000D3E90023FEF7F0F91BA3D3E90023FEF76F
:1022200015FBFEF7ABFC84421CD8A04501D98442C3
:102230001CD11D4B38601C60002333702B681A6A58
:1022400022F0A0021A621A6A1A62184B1A68D3683E
:1022500023F00403D360B4E7C6D2C3F57F43FF3352
:102260000344C0E7444528BF4446E2E7804544466E
:1022700028BF0446DDE700BF9CC420B07268A13FC0
:102280000000000000C0624000000000002061402B
:10229000F4000020EC000020F0000020DC00002012
:1022A000000500200000E03FE400002004040020BE
:1022B00010B50A4C01221021204601F039FC0A20F9
:1022C000FFF75AFF10210022204601F031FC044B99
:1022D0001A68D36843F00403D36010BD000C0240B9
:1022E000040400207FB5094D094CFFF7E1FF2A687F
:1022F000214601A805F086FA01AA28210A2000F04B
:102300009FFB642003F089FDEFE700BFE40000209D
:102310008881000800B595B02C22002109A805F09D
:1023200091FA1422002103A805F08CFA0023194A1F
:102330000193116C41F080511164126C02F08052D3
:102340000192019A144A0293116841F4804111608C
:1023500012680E9302F480420292029A02220892BC
:1023600001201022CDE90B0208A802F027F801464F
:1023700008B172B6FEE70F23CDE90330CDE90500C1
:10238000079003A802F0F4F908B172B6FEE715B0A1
:102390005DF804FB003802400070004080B59EB03C
:1023A00001F062F8AB4BAC4D46221A7057225A70BE
:1023B00030229A706422DA701A710024FFF7AAFFA3
:1023C0001422002115A805F03DFA02942B6BA348B6
:1023D00043F010032B632B6B03F010030293029B5B
:1023E00003942B6B43F080032B632B6B03F0800370
:1023F0000393039B04942B6B43F001032B632B6B20
:1024000003F001030493049B05942B6B43F0080332
:102410002B632B6B03F008030593059B06942B6B32
:1024200043F004032B632B6B03F004030693069B1A
:1024300007942B6B43F002032B632B6B03F0020317
:10244000079322464FF4BC61079B01F071FB84485F
:1024500022463C2101F06CFB22468248102101F00B
:1024600067FB01274FF4BC637C4815A9CDE91537FC
:10247000CDE9174401F07CFA3C23794815A9CDE950
:102480001537CDE9174401F073FA4FF4807375489E
:10249000179415A9CDE91534102601F069FA714891
:1024A00015A9CDE91567CDE9174401F061FA01944A
:1024B0002B6B43F400132B632B6B6B4D03F4001356
:1024C0002246052101930C20019B01F01FF80C20EE
:1024D00001F04EF8324621460AA805F0B3F91C2255
:1024E00021460EA8CDE9084405F0ACF9202221468A
:1024F00015A805F0A7F95D4BAC60C5E90034284686
:1025000041F61F43C5E90334C5E9054402F0F4FB75
:1025100008B172B6FEE74FF480530AA928460A9321
:1025200002F02BFE08B172B6FEE7284602F010FC5E
:1025300008B172B6FEE7CDE9080008A9284602F006
:10254000ADFF024608B172B6FEE76023CDE90E305A
:10255000CDE91000CDE9120014900EA9284602F032
:10256000D9FC08B172B6FEE704220EA9284602F093
:10257000D1FC08B172B6FEE7CDE91500CDE9170030
:1025800019904FF400531C9015A928461A9302F095
:10259000C3FF044608B172B6FEE7354D01461C2262
:1025A00016A805F04FF94FF08043C5E900344FF607
:1025B000FF73C5E903340323159315A90A2328469D
:1025C000CDE90E44AC60AC61179719931B971D932E
:1025D00002F016FC08B172B6FEE7CDE90E000EA9B6
:1025E000284602F05BFF044608B172B6FEE70146DA
:1025F00032460AA805F026F91C2221460EA8CDE98C
:10260000084405F01FF92022214615A805F01AF903
:10261000184D1948A023C0E900534FF47A73C0E95C
:102620000334C0E90544846002F066FB08B172B669
:10263000FEE74FF4805310480A930AA902F09DFD6B
:1026400008B172B6FEE70C4802F082FBB0B172B678
:10265000FEE700BFD5000020003802400010024015
:1026600000000240000C02404C0400200004014025
:1026700074030020000001402C030020CDE9080075
:1026800008A96F4802F00AFF08B172B6FEE760239E
:10269000CDE90E30CDE91200109014900C2268485C
:1026A0000EA902F037FC08B172B6FEE7CDE91500BD
:1026B000CDE9170019904FF400531C9015A96048FC
:1026C0001A9302F029FF08B172B6FEE75D4B5E4C2B
:1026D00018614FF4E132C3E900420C22C3E9020061
:1026E000C3E90520D861184603F000F8044608B194
:1026F00072B6FEE701461C2216A805F0A3F8534D5A
:10270000534BAC60C5E90034032301224FF6FF763A
:10271000159315A90A232846CDE90E44C5E903649B
:10272000AC61179219931B921D9302F069FB08B1DB
:1027300072B6FEE7CDE90E000EA9284602F0AEFE05
:1027400008B172B6FEE7434B4349444A1862C3E9F5
:1027500000124FF48042C3E90200C3E90420C3E938
:102760000600184601F0CEFB044608B172B6FEE73B
:102770001025CDE90E0001462A4615A805F062F89D
:102780003748384B0461C0E90035C0E9024684612E
:1027900002F00AFB08B172B6FEE7002330480EA92A
:1027A000CDE90E3302F07AFE08B172B6FEE70123DE
:1027B000CDE91630159018900422294815A902F089
:1027C0003DFC044608B172B6FEE700F059F9264A0E
:1027D0002348D2F8FC3043F08073C2F8FC30234B1E
:1027E0005C601A6842F001021A60042102F0D4FD14
:1027F00003F094FA1E4A1F48214603F0BBFA1E4B11
:102800001E4A186021461E4803F0B4FA1D4B1E4AAA
:10281000186021461D4803F0ADFA1D4B1D4A186093
:1028200021461D4803F0A6FA1C4B1D4A186021469C
:102830001C4803F09FFA1C4B186003F081FAFEE776
:102840002C0300209404002000480040BC0300201A
:1028500000040040D802002000540040A08601007F
:10286000040400200008004000ED00E0001000E03B
:1028700014830008591300087002002084820008A5
:1028800095130008E0000020CC820008C113000866
:10289000F8000020A8820008611F0008E80000205E
:1028A000F0820008E52200085802002072B6FEE718
:1028B000012970B50A46044618BF00221348134E7A
:1028C0004FF4807101F034F90825002220213046B0
:1028D00001F02EF923064CBF012200224021304690
:1028E00001F026F9013D01222021304601F020F9B6
:1028F000640015F0FF05E4B2E7D1BDE8704003487D
:1029000001224FF4807101F013B900BF00100240A2
:1029100070B50F4EB02400212046FFF7C9FF0021FB
:102920000846FFF7C5FF00211020FFF7C1FF002573
:1029300016F8350001210135FFF7BAFF802DF7D1D8
:102940000134E4B2B82C06F10106E4D170BD00BF39
:10295000300500200023084810B41C460022C1188E
:1029600001F832400132802AFAD10133082BF5D127
:102970005DF8044BFFF7CCBF30050020030610B50F
:1029800012D43F2910D801F00703C3F10703012433
:102990009C40C908064BC1F10701C9B203EBC00056
:1029A000435C12B12343435410BD23EA0403FAE706
:1029B000300500202DE9F74F1F46203A1E4B9DF8A9
:1029C00030B0D2B203EB021301931C4B02EB420274
:1029D00003EB82038146884600930C460026B742EB
:1029E00002D103B0BDE8F08F0C2F0CBF009B019B00
:1029F0009D5D04F108035FFA83FA2B0658BFBBFA0A
:102A00008BF2214604F101044CBF5A465209484654
:102A1000E4B2FFF7B3FFA4EB08026D00BA42EDB2D7
:102A200007D109F101005FFA80F9C2460136544628
:102A3000D5E7A245E1D1F9E7AC8700083883000863
:102A4000F7B504460D46561E012716F8013F0BB98F
:102A500003B0F0BD7A2C82BF1035EDB200243A2DC0
:102A600003D9FFF777FF00252C46009720463278E0
:102A70000C2329460834FFF79DFFE4B2E5E7000088
:102A800010B501F07FFC404B404C1A6F22F0010260
:102A90001A671A6F22F004021A6701F081FC002203
:102AA0008021204601F044F8642000F009FD012255
:102AB0002046802101F03CF80021AE20FFF7F8FE0F
:102AC0000021D520FFF7F4FE00215020FFF7F0FE93
:102AD0000021A820FFF7ECFE00213F20FFF7E8FED1
:102AE0000021D320FFF7E4FE00210846FFF7E0FEB7
:102AF00000214020FFF7DCFE00218D20FFF7D8FEEB
:102B000000211420FFF7D4FE00212020FFF7D0FE83
:102B100000210220FFF7CCFE0021A120FFF7C8FE14
:102B20000021C020FFF7C4FE0021DA20FFF7C0FE1D
:102B300000211220FFF7BCFE00218120FFF7B8FE24
:102B40000021EF20FFF7B4FE0021D920FFF7B0FEEF
:102B50000021F120FFF7ACFE0021DB20FFF7A8FEEB
:102B600000213020FFF7A4FE0021A420FFF7A0FEE3
:102B70000021A620FFF79CFE0021AF20FFF798FE62
:102B8000BDE81040FFF7E6BE0038024000100240EA
:102B9000436C2DE9D043D3E90067C0E91467036CA7
:102BA000D0E91A89D3E900230446C0E9162339463F
:102BB00042464B463046FDF7AFFF10B1C4E91489D9
:102BC00009E0D4E91889304642464B463946FDF7BC
:102BD00085FF0028F2D1BDE8D0832DE9F04F2DED1F
:102BE000048B437885B004462BB9002005B0BDECBA
:102BF000048BBDE8F08F00F05DFC6368A268C31A27
:102C00009A420546F1D8236CA16CD3E900ABD1E917
:102C1000000152465B46FDF737FBD4E9162341EC31
:102C2000180B50465946FDF72FFBD4E90C2341EC15
:102C3000190B51EC180BFDF7DFFCD4E91423FDF759
:102C400025FB2378019306460F46C4E914676BB948
:102C5000D4E90A2351EC190BFDF7CEFC02460B46D2
:102C600030463946FDF710FBC4E91401D4E9148954
:102C7000D4E91A67404632463B464946FDF74CFFC9
:102C8000002838D0C4E91467019B002B44D0D4E954
:102C90000A2351EC180BFDF7AFFC80468946D4E9B6
:102CA0000E2351EC190BFDF7A7FC02460B46D4E9A5
:102CB0001401FDF7E9FA42464B46FDF7E7FA804674
:102CC000894602460B4630463946FDF707FF50B9A4
:102CD000D4E9186742464B4630463946FDF71CFF9B
:102CE00008B946464F46636C0120C3E90067C4E952
:102CF00016AB65607AE794ED187B404653EC172BD2
:102D000049468DED027BFDF7E9FE0028BCD09DED24
:102D1000027B84ED147BB7E74FF000084FF0000909
:102D2000BDE7012938B504460CBF0125002503D1B4
:102D300043780BB9FFF72CFF657038BD2DE9F84FCC
:102D400055EC104B57EC116B824611EE102A10EE29
:102D5000100A3B462946FDF7D5FE002837D19AF8E0
:102D60000130CAE91845CAE91A67002B2FD0DAF8F2
:102D700044B0DBE9008932463B4640464946FDF710
:102D8000CBFE78B1CBE90067DAE91467DAE91A45D6
:102D9000304622462B463946FDF7BEFE68B1CAE9E9
:102DA000144514E022462B4640464946FDF796FE60
:102DB0000028E9D0CBE90045E6E7DAE918453046D6
:102DC00022462B463946FDF789FE0028E7D1BDE8AB
:102DD000F88F00002DE9F34755EC104B82468846EA
:102DE00010EE100A0022002329468DED002B57EC2F
:102DF000116BFDF773FE00285DD1002200233046E1
:102E00003946FDF76BFE002855D1DDE900010022AF
:102E10000023FDF763FE00284DD19DED007B08F1F6
:102E2000FF338AF80280D3F1000848EB03088AEDEB
:102E3000087BCAE906678AF80080CAE90445DAF81F
:102E40000800FDF75FFB1D4B0022FDF7FFFCCAE900
:102E50000A458046894602460B4630463946FDF70C
:102E6000CBFB06460F464B464246CAE90C67DDE9F6
:102E70000001FDF7EBFC9AF8033080468946012BF0
:102E8000CAE90E8917D122462B4600200021FDF702
:102E9000FBF93246CAE90A013B4600200021FDF752
:102EA000F3F94246CAE90C014B4600200021FDF728
:102EB000EBF9CAE90E0102B0BDE8F08700408F408F
:102EC00038B5437804460D46D3B1C3788B4217D04A
:102ED000D0E90A2300210020FDF7D6F9D4E90C231C
:102EE000C4E90A0100200021FDF7CEF9D4E90E2340
:102EF000C4E90C0100200021FDF7C6F9C4E90E0168
:102F0000E57038BD0000000010B583640023C0E9FF
:102F10001012437000220023C0E9182312A3D3E942
:102F2000002386B0C0E91A236423044683609DF819
:102F300024108DED040B8DED021B8DED002BFFF7A2
:102F4000BFFF9DED002B9DED021B9DED040B9DF839
:102F500020102046FFF73EFF00F0ACFAA368C01A2D
:102F6000606006B010BD00BF0000000000E06F40D0
:102F7000F8B50D1E044620DD2846FDF7D3FA0646B7
:102F8000A0680F46FDF7BEFA02460B4630463946AA
:102F9000FDF75CFC02460B4606460F46D4E90C01E1
:102FA000FDF72AFB3246C4E90C013B46D4E90E0189
:102FB000FDF74CFCC4E90E01A560F8BD82B00E4BD4
:102FC00000220092596C41F480415964596C01F41B
:102FD0008041009100990192196C41F0805119646F
:102FE0001B6C03F080530193019B0F216FF00100D4
:102FF00002B000F08BBA00BF0038024030B5044682
:1030000089B01422002103A804F01CFC2268144B90
:103010009A4222D1134C144800250195236B43F0AA
:1030200002032363236B03F002030193019B4FF41C
:1030300040721223CDE9032303210423CDE90613B3
:1030400003A900F095FC0295236C43F4001323645C
:10305000236C03F400130293029B09B030BD00BF40
:1030600000540040003802400004024010B5142211
:103070008AB0044600210DEB020004F0E3FB236854
:10308000234A934222D1234B2348002101915A6CB9
:1030900042F001025A645A6C02F001020192019A54
:1030A00002911A6B42F010021A631B6B03F01003BB
:1030B00002934FF48041029B0223CDE905130123C3
:1030C000099305A900F054FC0AB010BD134A9342BD
:1030D000FAD1104B1248002103915A6C42F00202BF
:1030E0005A645A6C02F002020392039A04911A6B1A
:1030F00042F004021A631B6B03F004030493049B65
:10310000C0220223CDE905230323099305A9D9E7AA
:10311000000001400038024000100240000401405D
:103120000008024070B514228AB0044600210DEB5D
:10313000020004F087FB2368B3F1804F37D103F519
:103140000E33002400941A6C294842F001021A64DC
:103150001A6C02F001020092009A01941A6B42F07C
:1031600001021A631A6B02F001020192019A0294A1
:103170001A6B42F002021A631B6B03F00203029304
:10318000029B02264FF40043012505A9CDE905362F
:10319000099500F0EDFB0823CDE90536CDE907449C
:1031A0001448099505A900F0E3FB0AB070BD124A66
:1031B0009342FAD1114B0E48002103911A6C42F050
:1031C00002021A641A6C02F002020392039A04913A
:1031D0001A6B42F001021A631B6B03F001030493A4
:1031E000049BC0220223CDE90523099305A9DAE750
:1031F0000000024000040240000400400038024089
:1032000010B5044688B01422002103A804F01AFB6C
:103210002268174B9A4228D103F50C3300240194FD
:103220001A6C144842F004021A641A6C02F0040288
:103230000192019A02941A6B42F008021A631B6B06
:1032400003F0080302934FF40052029B03A90223E8
:10325000CDE90323079300F08BFB1E2022460521B6
:1032600000F054F91E2000F083F908B010BD00BF33
:1032700000080040000C024070B5064688B01422D9
:10328000002103A804F0DEFA3268254B9A4245D1AA
:10329000002503F5F83301951A6C2248224C42F4BC
:1032A00080221A641A6C02F480220192019A02951B
:1032B0001A6B42F004021A631B6B03F004030293BF
:1032C000029B4FF440620223CDE90323032107232D
:1032D000CDE9061303A900F04BFB1448A5614FF09C
:1032E0000063C4E900034FF48063C4E90435204659
:1032F0004FF48073C4E90255C4E90735656200F0F4
:103300006FF908B1FFF7D2FAB46327200022052134
:10331000A66300F0FBF8272000F02AF908B070BD82
:103320000048004000080240780200202860024067
:10333000FEE7FEE7FEE7FEE7FEE7704708B500F0B0
:10334000ADF803F077FD012803D0BDE8084004F094
:1033500081B808BD014800F04DBA00BF78020020D6
:10336000014801F0C1BB00BF04040020014802F085
:103370002BBB00BF940400200B4A116810B5034614
:1033800009B90A491160106809490A4C0344091B2C
:103390008B4206D904F05EFA0C2303604FF0FF3035
:1033A00010BD1360FCE700BF30090020D05300209F
:1033B0000000022000040000034AD2F8883043F4E1
:1033C0007003C2F88830704700ED00E0DFF834D0B9
:1033D0000D480E490E4A002302E0D458C45004336D
:1033E000C4188C42F9D30B4A0B4C002301E0136044
:1033F0000432A242FBD3FFF7DFFF04F031FAFEF7FD
:10340000CDFF704700000220000000209000002047
:10341000148E000890000020CC530020FEE700002E
:1034200038B50E4B1A784FF47A73B3FBF2F30C4AAB
:1034300005461068B0FBF3F000F0A8F8044658B950
:103440000F2D09D8024629464FF0FF3000F05EF8F4
:10345000044B20461D6038BD0120FCE734000020ED
:10346000300000203800002008B50B4B1A6842F4E9
:1034700000721A601A6842F480621A601A6842F494
:1034800080721A60032000F02FF80F20FFF7C8FFAA
:10349000FFF794FD002008BD003C0240034A044BA6
:1034A00011681B780B441360704700BF340900207B
:1034B00034000020014B1868704700BF3409002019
:1034C00038B50446FFF7F6FF631C1CBF054B1B789D
:1034D000054618BFE418FFF7EDFF431BA342FAD3DC
:1034E00038BD00BF340000200749CA6822F4E062FA
:1034F0000302120403F4E063120C134343F0BF63AE
:1035000043F40033CB60704700ED00E0164B30B55C
:10351000DC68C4F30224C4F10703251D042B28BF73
:103520000423062D4FF0FF358CBF033C002405FA21
:1035300003F321EA0303A54022EA0502A340002881
:1035400043EA0203ACBF00F16040084A4FEA0313AC
:10355000B8BF00F00F00DBB2AABF00F56140135402
:1035600080F8003330BD00BF00ED00E014ED00E056
:10357000002807DB4109044A00F01F0001238340B3
:1035800042F82130704700BF00E100E00138B0F19F
:10359000807F0BD24FF0E023054A5861F02182F87A
:1035A00023100020072298611A617047012070479C
:1035B00000ED00E0036810B5DAB2103A074C23F4CE
:1035C0007F7323F003035F2A88BF04331821B2FB03
:1035D000F1F1615CC1658365184610BDB48D0008CA
:1035E00070B50446FFF766FF0546002C71D0022334
:1035F00084F835302268002384F83430136823F0CF
:103600000103136022681368D8072ED41368324868
:10361000A1691840D4E901352B43E5682B4325699E
:103620002B4365692B43E5690B432B43256A2B43E9
:103630000343606A042802BFD4E90B5635432B4389
:1036400013605369042823F0070343EA000332D1CF
:10365000A06AE56A034375B391B9012820D030F020
:10366000020128D1E90126D51DE0FFF723FF401B09
:103670000528C7D920236365032084F8350070BD71
:10368000B1F5005F13D1032815D801A151F820F03E
:10369000A736000865360008A7360008A1360008DE
:1036A000B5F1C07F07D1402363650120E5E702281B
:1036B000F9D90328D6D053612046FFF77BFFE26D8E
:1036C0003F239340836000200123606584F83530F8
:1036D000D5E70120D3E700BF3F8010F070B590F828
:1036E0003440866D012C31D0012480F8344090F8AC
:1036F0003540012C4FF000054FF0020424D180F832
:10370000354004684565256825F48025256063609B
:103710008368402B0EBFA260A160E260C26D08BF4B
:10372000E1603F239340B360236843F016032360B6
:10373000036C1BB1236843F008032360236843F044
:1037400001032360002070BD80F834500220FAE7A6
:1037500070B50446866DFFF7ADFE94F83530022B48
:10376000054606D0802363650120002384F83430A9
:1037700070BD23681A6822F016021A605A6922F096
:1037800080025A61226C0AB9A26C1AB11A6822F03E
:1037900008021A601A6822F001021A6023681B6886
:1037A00013F0010308D1E16D3F228A40B26001228B
:1037B00084F835201846D8E7FFF77CFE401B052823
:1037C000ECD920230320636584F83500CDE790F819
:1037D0003530022B03D080234365012070470268F7
:1037E000052380F83530136823F0010313600020AF
:1037F00070470000F7B5002301935C4B856D1F688F
:10380000C36D2E6808229A40324204460CD00168EB
:103810000868400708D5086820F004000860AA601E
:10382000626D42F00102626501229A40324208D084
:1038300021684969090641BFAA60626D42F002022F
:10384000626504229A40324208D0216809688807DC
:1038500041BFAA60626D42F00402626510229A4084
:10386000324210D02368196809070CD5AA601A687B
:10387000500337D51B68190301D4236C00E0A36CF7
:103880000BB120469847E16D20228A4032423AD05F
:1038900023681868C60636D5AA6094F83520052A2C
:1038A0001A6827D122F016021A605A6922F08002A3
:1038B0005A61226C0AB9A26C1AB11A6822F0080285
:1038C0001A603F238B40AB60012384F8353000231E
:1038D00084F83430236D002B45D0204603B0BDE87A
:1038E000F04018471A68D2055EBF1A6822F0080235
:1038F0001A60C2E7500327D51B68190331D4636CE3
:103900000BB120469847636D6BB3636DDA0719D529
:1039100022684FF41653B7FBF3F7052384F83530CC
:10392000136823F001031360019B0133BB42019331
:1039300002D81368DB07F7D4012384F8353000235D
:1039400084F83430E36CC6E71A6812F4807208D148
:10395000196821F010011960012384F8353084F8CA
:103960003420E36BCCE703B0F0BD00BF3000002093
:103970002DE9F74FDFF8A891674A00230D6801246D
:103980009C4004EA050CAC4340F0B1804D6805F062
:1039900003044FEA43080326671E06FA08F6012FC0
:1039A0006FEA060634D8876807EA060ECF6807FA7A
:1039B00008F747EA0E078760476827EA0C0EC5F349
:1039C00000179F4047EA0E074760C76807EA060EE0
:1039D0008F6807FA08F747EA0E07022CC76019D16B
:1039E0004FEAD30A00EB8A0A03F0070BDAF82070DB
:1039F0004FEA8B0B4FF00F0E0EFA0BFE27EA0E0E5E
:103A00000F6907FA0BF747EA0E07CAF8207001E0C2
:103A1000032CDAD1076804FA08F437403C4315F464
:103A2000403F046063D04FF0000ACDF804A0D9F8FD
:103A300044603A4C46F48046C9F84460D9F8446082
:103A400006F480460196019E23F0030606F18046A7
:103A500006F59C3603F0030ED6F808804FEA8E0E6A
:103A60000F2707FA0EF7A04228EA070746D004F509
:103A70008064A04244D004F58064A04242D004F5A2
:103A80008064A04240D004F58064A0423ED004F59A
:103A90008064A0423CD004F58064A0423AD004F592
:103AA0008064A0420CBF0724082404FA0EF43C43AF
:103AB000B46014686FEA0C06EF0354BF34404CEA5C
:103AC000040414605468AF0354BF34404CEA040447
:103AD00054609468EF0254BF34404CEA040494608C
:103AE000D468AD0254BF34404CEA0404D4600133BE
:103AF000102B7FF443AF03B0BDE8F08F5446D4E7FA
:103B00000124D2E70224D0E70324CEE70424CCE743
:103B10000524CAE70624C8E7003C01400000024033
:103B2000003802400369194214BF01200020704789
:103B30000AB1816170470904FBE7436901EA0302A6
:103B400021EA030141EA02418161704701684B6942
:103B500013F480634FF0000210D06FF480634B6168
:103B60002023026380F83D3080F83E20036C80F80B
:103B70003C2043F00403036401207047184670475B
:103B80002DE9F84606460F4691461D464FEA114A72
:103B90003368BAF1010F0CBF5C699C6927EA040421
:103BA000A4B2B4FA84F46409A14501D0002017E05E
:103BB0006A1CEED0FFF77EFC089BC01AA84201D811
:103BC000002DE5D100232022336386F83D2086F8BE
:103BD0003E30326C86F83C3042F0200232640120E4
:103BE000BDE8F8862DE9F04104460F461646984692
:103BF0002568686927EA000080B2B8B16B695A0588
:103C000016D52B6843F400732B606FF480636B61EF
:103C100020220023236384F83D2084F83E30226C68
:103C200042F00402226484F83C300120BDE8F081B7
:103C3000731CDED0FFF73EFCA0EB0800B04201D8B9
:103C4000002ED5D100232022236384F83D2084F860
:103C50003E30226C42F02002E4E770B504460D4687
:103C6000164621684B6913F0400301D0002010E094
:103C70004A69D2060ED56FF010024A6120222363F2
:103C800084F83D2084F83E30226C226484F83C3075
:103C9000012070BDFFF70EFC801BA84201D8002D4B
:103CA000DFD100232022236384F83D2084F83E30B6
:103CB000226C42F02002E8E770B504460D46164635
:103CC00023685B691B0601D5002070BD2046FFF705
:103CD0003DFFA8B96A1CF3D0FFF7ECFB801BA8429C
:103CE00001D8002DECD100232022236384F83D204D
:103CF00084F83E30226C84F83C3042F0200222648A
:103D00000120E2E72DE9F0431546026885B0DDE9C0
:103D10000C789946136843F4807313600E463B4653
:103D2000CDF8008000224FF001110446FFF728FF74
:103D3000236838B11B68DB0502D54FF40073236498
:103D400003200AE006F0FE061E61194943463A4682
:103D50002046FFF747FF18B1012005B0BDE8F0830A
:103D6000236803905A6903929B690393424639463C
:103D70002046039BFFF7A0FF40B1236C042B01BF3B
:103D80002268136843F400731360E5E7B9F1010F8B
:103D9000236802D1EDB21D61DFE72A0A1A613946B4
:103DA00042462046FFF788FF0028E6D12368F1E766
:103DB000020001002DE9FF479A46036815461A687C
:103DC00042F480621A601A68DDE90C7842F480726D
:103DD0001A600E463B46CDF8008000224FF00111DC
:103DE0000446FFF7CDFE236848B11B68DB0502D50A
:103DF0004FF400732364032004B0BDE8F0875FFA3A
:103E000086F906F0FE061E612A4943463A462046D8
:103E1000FFF7E8FE08B10120EEE7236803905A6936
:103E200003929B690393424639462046039BFFF762
:103E300043FF40B1236C042B01BF2268136843F495
:103E400000731360E7E7BAF1010F23681AD1EDB2EE
:103E500042461D6139462046FFF72EFF02460028E4
:103E6000E8D121680B6843F480730B602046CDF8DD
:103E700000803B464FF00111FFF782FE226860B1DF
:103E80001368B3E72A0A1A61394642462046FFF70B
:103E900013FF0028CED12368D9E749F0010313614D
:103EA000044943463A462046FFF79CFE003818BFB7
:103EB0000120A1E70200010070B504460D46164638
:103EC00023685B695B0701D5002070BD2046FFF7C2
:103ED0003DFEA8B96A1CF3D0FFF7ECFA801BA8429C
:103EE00001D8002DECD100232022236384F83D204B
:103EF00084F83E30226C84F83C3042F02002226488
:103F00000120E2E770B5044608B9012070BD90F8C1
:103F10003D3003F0FF021BB980F83C20FFF76EF83C
:103F2000242384F83D3023681A6822F001021A60C5
:103F30001A6842F400421A601A6822F400421A60B9
:103F400000F0B0FC3F4B65689D4294BF3E4B3F4B39
:103F500098428CBF00230123002BD6D12268394E12
:103F600051683B4BB0FBF3F321F03F011943B542DD
:103F7000516088BF4FF49676116A88BF734321F071
:103F80003F0184BF4FF47A76B3FBF6F301330B4362
:103F90001362D169431E2B4821F44F41854221F021
:103FA000FF0132D86D0040F6FC70B3FBF5F301332E
:103FB000034242D0C3F30B031943D161D4E9073064
:103FC0001168034321F0C0010B4313609168D4E9E9
:103FD000030321F40341034321F0FF010B439360EA
:103FE000D4E90530D168034321F0FF010B43D360CE
:103FF000136843F00103136000202023206484F839
:104000003D30206384F83E0080E7A06850B905EB9E
:104010004505B3FBF5F30133C3F30B037BB143F465
:104020000043C9E719206843B3FBF0F30133C3F33E
:104030000B0323B143F44043BEE70423BCE7012351
:10404000BAE700BFA08601007F841E00FF083D0084
:1040500040420F002DE9F743044699460C9E0F4657
:104060009046FFF727FA94F83D30202B054603D001
:10407000022003B0BDE8F08300903C4919230122DF
:104080002046FFF77DFD0028F2D194F83C30012B4B
:10409000EED02068012384F83C300368D9075EBF66
:1040A000036843F001030360036823F400630360C3
:1040B000212384F83D30402384F83E3000232364DC
:1040C0000A9B6362BDF82C306385638D2385284B82
:1040D000E362CDE900654B46424639462046FFF78C
:1040E00011FE00282AD00120C3E7FFF7E5FD40B10B
:1040F000236C042B01BF2268136843F40073136020
:10410000F1E7636A27681A4612F8011B3961626297
:10411000628D218D013A92B262857A69481E80B221
:10412000520720850AD548B15A783A610233636252
:10413000638D013B02399BB221856385238D2A461D
:1041400031462046002BD0D1FFF7B6FE0028CFD154
:104150002268136843F400731360202384F83D3011
:1041600084F83C0084F83E0083E700BF02001000A2
:104170000000FFFF2DE9F043044687B09946109FE9
:104180000D469046FFF796F994F83D30202B0646F1
:1041900004D00225284607B0BDE8F0830090764998
:1041A000192301222046FFF7EBFC0028F1D194F8F7
:1041B0003C30012BEDD02068012384F83C300368AB
:1041C000DB075EBF036843F001030360036823F469
:1041D00000630360222384F83D30402384F83E309E
:1041E000002323640E9B6362BDF83C306385638DBE
:1041F0002385624BE3622946CDE900764B46424671
:104200002046FFF7D7FD054608B10125C2E7228DFC
:104210002368B2B902905A6902929A690292029A8C
:104220001A6842F400721A60DFF85481238D002B63
:104230002CD1202284F83D2084F83C3084F83E3094
:10424000A8E7012A0AD11A6822F480621A60039052
:104250005A6903929A690392039AE1E7022A0ED1FE
:104260001A6822F480621A601A6842F400621A60C6
:1042700004905A6904929B690493049BD4E70590C7
:104280005A6905929B690593059BCDE7032B56D888
:10429000012B15D1324639462046FFF7DEFC0028B7
:1042A000B3D123681A69636A1A70636A013363625F
:1042B000238D013B2385638D013B9BB26385B5E76D
:1042C000022B00963B464FF000024146204619D192
:1042D000FFF756FC002898D123681A6842F4007250
:1042E0001A601A69636A1A70626A531C6362238DCA
:1042F000013B2385638D013B9BB2638523681B696A
:104300005370D2E7FFF73CFC024600287FF47DAFF4
:104310002368196821F4806119601969636A19704A
:10432000636A009601336362238D013B2385638DAD
:10433000013B9BB2638541463B462046C8E7324677
:1043400039462046FFF789FC00287FF45EAF2368DA
:104350001A69636A1A70626A531C6362238D013B97
:104360002385638D013B9BB26385236859694907A7
:104370007FF55CAFC3E700BF020010000000FFFF45
:1043800004000100044B01221A62044B82B01B6836
:104390000193019B02B0704700000E420070004084
:1043A000044B00221A62044B82B01B680193019BEC
:1043B00002B0704700000E42007000402DE9F3414A
:1043C000044640B30368DD0710D4236898075BD424
:1043D00023681A0700F19D8023685B0700F1BD8008
:1043E000A069002840F0248100202CE08D4B9A68C1
:1043F00002F00C02042A07D09A6802F00C02082A84
:104400000BD15B68590208D5864B1B689A03DCD533
:104410006368002BD9D1012015E06368814DB3F5A5
:10442000803F13D12B6843F480332B60FFF742F8B1
:104430007C4E054633689B03C7D4FFF73BF8401B0F
:104440006428F7D9032002B0BDE8F081B3F5A02FAE
:1044500004D12B6843F480232B60E3E72A6822F41D
:1044600080322A602A6822F480222A60002BDDD163
:10447000FFF720F806462B689F03A6D5FFF71AF82A
:10448000801B6428F7D9DDE7664B9A6812F00C0FA1
:1044900007D09A6802F00C02082A11D15B685E020C
:1044A0000ED4604A13689D0702D5E368012BB2D190
:1044B0001368216923F0F80343EAC103136087E717
:1044C000E268594BB2B101221A60FEF7F3FF554D75
:1044D00006462B68980707D52B68226923F0F80356
:1044E00043EAC2032B6073E7FEF7E4FF801B022858
:1044F000EFD9A7E71A60FEF7DDFF4A4E054633689D
:1045000099077FF565AFFEF7D5FF401B0228F6D966
:1045100098E76269444B82B10122C3F8802EFEF70E
:10452000C9FF404E0546736F9F073FF555AFFEF735
:10453000C1FF401B0228F6D984E7C3F8802EFEF79E
:10454000B9FF384E0546736F98077FF545AFFEF704
:10455000B1FF401B0228F6D974E7324B1A6C12F0F7
:10456000805228D101921A6C42F080521A641B6C5E
:1045700003F080530193019B01272C4D2B68D90533
:104580001BD5A368274D012B27D12B6F43F00103C7
:104590002B67FEF78FFF234E054641F28838336FB5
:1045A0009B0739D5002F3FF41BAF1E4A136C23F035
:1045B0008053136414E70027DFE72B6843F480730C
:1045C0002B60FEF777FF06462B68DA05D9D4FEF795
:1045D00071FF801B0228F7D934E7052B04D12B6F1C
:1045E00043F004032B67D0E72A6F22F001022A6709
:1045F0002A6F22F004022A67002BCAD1FEF75AFF65
:1046000041F2883806462B6F9807CBD5FEF752FF4C
:10461000801B4045F7D915E7FEF74CFF401B40458E
:10462000BDD90FE70038024000004742007000404B
:10463000364DAB6803F00C03082B3DD0344B002201
:1046400002281A662BD1FEF735FF06462B68990122
:104650001FD4D4E907321343626A43EA8213E26A41
:1046600043EA0263A26A5208013A43EA02436B60DA
:10467000274B264D01221A66FEF71CFF04462B68C5
:104680009A013FF5B1AEFEF715FF001B0228F6D9DF
:10469000D8E6FEF70FFF801B0228D7D9D2E6FEF737
:1046A00009FF04462B689B017FF59EAEFEF702FFD3
:1046B000001B0228F6D9C5E601283FF4C4AE6B689A
:1046C000E26903F4800191427FF4A5AE216A03F010
:1046D0003F028A427FF49FAE616A47F6C0721A4079
:1046E000B2EB811F7FF497AEA26A520803F4403107
:1046F000013AB1EB024F7FF48EAEE26A03F07063D1
:10470000B3EB026F3FF470AE85E600BF00380240A5
:1047100000004742134908B58B6803F00C03042BD3
:104720001CD0082B1CD14A684B68496813F48003DD
:1047300014BF0D480D48C1F3881118BF002302F0C3
:104740003F02A1FB0001FCF789FA064B5B68C3F34B
:10475000014301335B00B0FBF3F008BD0248FCE706
:104760000248FAE70038024040787D010024F40056
:104770002DE9F0410D46044610B90120BDE8F08155
:10478000434B1A6802F007028A4228D321688F0738
:104790002DD4C80740D43E4B1A6802F00702AA4243
:1047A00065D8226851076BD4130707D5394A2169A8
:1047B000936823F4604343EAC1039360FFF7AAFFC1
:1047C000344B354A9B68C3F30313D35CD840334B57
:1047D0001860334B1868FEF723FE0020CEE7CAB2FC
:1047E0001A701B6803F007038B42C6D1CEE7294B32
:1047F00011F0040F1EBF9A6842F4E0529A600E074F
:1048000042BF9A6842F460429A609A68A06822F0B7
:10481000F00202439A60BCE762681E4B012A1CD179
:104820001B6813F4003FA8D01A4EB36823F00303AB
:104830001343B360FEF73EFE41F288380746B36883
:10484000626803F00C03B3EB820FA4D0FEF732FED4
:10485000C01B4045F3D9032090E7911E01291B6836
:1048600002D813F0007FDEE713F0020FDBE7EAB2B5
:104870001A701B6803F00703AB427FF47EAF90E72A
:104880000449E0688B6823F4E05303438B608BE7B3
:10489000003C0240003802409C8D0008300000209F
:1048A00038000020044B054A9B68C3F38223D35C85
:1048B000034A1068D840704700380240AC8D0008A9
:1048C00030000020044B054A9B68C3F34233D35C9D
:1048D000034A1068D840704700380240AC8D000889
:1048E00030000020036A23F001030362036A70B5FD
:1048F000446882690D6822F073022A438D6823F0B0
:1049000002032B430E4DA84202D00E4EB04210D1EE
:10491000CE6823F008033343A84223F0040302D0F7
:10492000084DA84205D1D1E9055624F44074354319
:104930002C43446082614A684263036270BD00BFD9
:104940000000014000040140036A23F48073036205
:10495000036A70B54468C2690D6822F073022A4385
:104960008D6823F4007343EA0523114DA84203D058
:1049700005F58065A84214D1CD6823F4006343EAAD
:1049800005230B4DA84223F4806303D005F5806511
:10499000A84206D1D1E9055624F44054354344EAEF
:1049A00005144460C2614A68C263036270BD00BFFF
:1049B00000000140036A23F480530362036A30B5A8
:1049C0004468C2690D6822F4E64242EA05228D6815
:1049D00023F4005343EA0533084DA84203D005F5FC
:1049E0008065A84204D14D6924F4804444EA8514CA
:1049F0004460C2614A680264036230BD0000014045
:104A0000704730B5034690F83E0093F83F2093F886
:104A1000425093F84340C0B2D2B2EDB2E4B2C1B951
:104A2000012845D1012D13D1022283F83E2083F8BD
:104A300042201A68116A21F001011162116A41F0E5
:104A4000010111621A68136843F00103136000202A
:104A500030BD042911D1012A2AD1012C28D10222EA
:104A600083F83F2083F843201A68116A21F010016F
:104A70001162116A41F01001E3E7012818D1012AFF
:104A8000E6D1012DE4D1012CE2D1022283F83E20AF
:104A900083F83F2083F8422083F843201A68116A84
:104AA00021F001011162116A41F001011162DCE79C
:104AB0000120CDE7082910D004D841B1042909D03C
:104AC000002070470C29FBD10368186C70470368FD
:104AD000586B70470368986B70470368D86B7047D2
:104AE000704770477047704703681A69910710B59F
:104AF00004460ED5DA6892070BD56FF002021A61F0
:104B0000012202779B699B0777D0FDF741FB0023C9
:104B1000237723681A69500710D5DA6851070DD535
:104B20006FF004021A61022222779B6913F4407F1E
:104B3000204668D0FDF72CFB0023237723681A69F1
:104B400012070FD5DA6810070CD56FF008021A614A
:104B500004222277DB69990720465AD0FDF718FB1B
:104B60000023237723681A69D20610D5DA68D006A5
:104B70000DD56FF010021A6108222277DB6913F459
:104B8000407F20464BD0FDF703FB002323772368AB
:104B90001A69D10708D5DA68D20705D56FF0010286
:104BA0001A612046FFF79CFF23681A69100608D592
:104BB000DA68110605D56FF080021A61204600F010
:104BC000D2FC23681A69520608D5DA68500605D562
:104BD0006FF040021A612046FFF785FF23681A69CB
:104BE000910622D5DA6892061FD56FF02002204682
:104BF0001A61BDE8104000F0B5BCFFF772FF204617
:104C0000FFF770FF83E7FFF76CFF2046FFF76AFFAF
:104C100092E7FFF766FF2046FFF764FFA0E7FFF784
:104C200060FF2046FFF75EFFAFE710BD304A036824
:104C3000904212D0B0F1804F0FD0A2F57C4290424A
:104C40000BD002F58062904207D002F5806290425C
:104C500003D002F57842904219D14A6823F07003DC
:104C60001343234A904229D0B0F1804F26D0A2F5B9
:104C70007C42904222D002F5806290421ED002F522
:104C8000806290421AD002F57842904216D0194ABA
:104C9000904213D002F5806290420FD002F58062FC
:104CA00090420BD0A2F59832904207D002F5806274
:104CB000904203D002F58062904203D1CA6823F487
:104CC000407313434A6923F08003134303608B68E6
:104CD000C3620B688362064B984203D003F580637E
:104CE000984201D10B69036301234361704700BF00
:104CF000000001400040014010B5044630B390F878
:104D00003D3003F0FF021BB980F83C20FEF7AEF9FE
:104D10000223206884F83D30211DFFF787FF01231F
:104D200084F84630002084F83E3084F83F3084F820
:104D3000403084F8413084F8423084F8433084F8BD
:104D4000443084F8453084F83D3010BD0120FCE744
:104D500010B5044630B390F83D3003F0FF021BB9A4
:104D600080F83C20FFF74CFE0223206884F83D3099
:104D7000211DFFF75BFF012384F84630002084F8F3
:104D80003E3084F83F3084F8403084F8413084F875
:104D9000423084F8433084F8443084F8453084F855
:104DA0003D3010BD0120FCE710B5044630B390F84B
:104DB0003D3003F0FF021BB980F83C20FEF720FADB
:104DC0000223206884F83D30211DFFF72FFF0123C7
:104DD00084F84630002084F83E3084F83F3084F870
:104DE000403084F8413084F8423084F8433084F80D
:104DF000443084F8453084F83D3010BD0120FCE794
:104E0000F8B50D46044600284CD090F83D3003F02C
:104E1000FF021BB980F83C20FEF784F921460223EB
:104E200084F83D3051F8040B836823F4804323F069
:104E300007038360FFF7FAFE81682A688369AE6919
:104E4000076A1143AA6823F4407323F0030342EA7C
:104E500006221A432B69EE691B0143EA0623EE681A
:104E600033432E6A22F47C4222F0FC0243EA0633EA
:104E700013436E696A68816027F0AA0742EA061246
:104E8000836117430123076284F84630002084F8C9
:104E90003E3084F83F3084F8423084F8433084F860
:104EA0003D30F8BD0120FCE7036A23F010030362E4
:104EB000036A70B5446882690D6822F4E64242EAEA
:104EC00005228D6823F0200343EA0513104DA84204
:104ED00003D005F58065A84214D1CD6823F0800386
:104EE00043EA05130A4DA84223F0400303D005F519
:104EF0008065A84206D1D1E9055624F440643543C3
:104F000044EA8504446082614A688263036270BD3A
:104F10000000014070B590F83C30012B054650D0A0
:104F20000123082A80F83C303BD007D8C2B1042ABC
:104F300027D01846002385F83C3070BD0C2AF8D1E4
:104F40000068FFF737FDC3690A6943F40063C36172
:104F5000C36923F48063C361C36943EA02232EE07B
:104F60000068FFF7BFFC83690A6943F008038361A7
:104F7000836923F004038361836913438361002001
:104F8000D8E70068FFF790FF83690A6943F400637C
:104F90008361836923F480638361836943EA022325
:104FA000ECE70068FFF7D0FCC3690A6943F0080327
:104FB000C361C36923F00403C361C3691343C361BD
:104FC000DDE70220B9E7000070B5046A1A4E24F04C
:104FD00001040462B0428469056A29D0B0F1804FAF
:104FE00026D0A6F57C46B04222D006F58066B042B7
:104FF0001ED006F58066B0421AD006F57846B0425B
:1050000016D006F57056B04212D0A6F59436B042CE
:105010000ED044F001021B0122F0F002DBB2134378
:1050200001F00A0125F00A0211438361016270BD9B
:1050300024F003042243EEE700000140F8B590F8A5
:105040003C30012B05460C4600F08B80012380F894
:105050003C3092B90068CB68D1E90012FFF7B4FF89
:105060008369A26823F00C0383618369134383611E
:105070000020002385F83C30F8BD042A24D10368C1
:10508000186A20F01000D1E90027C96818629869F1
:105090001E6A20F4407040EA0720090320F47040A3
:1050A00089B21201014302F0A00226F0A0000243DF
:1050B00099611A629A69A16822F440629A619A69B8
:1050C00042EA01229A61D3E7082A22D103681E6AC4
:1050D00026F48076D1E90020C9681E62DF691E6A65
:1050E00027F003073843090120F0F000C9B212028B
:1050F000014302F4206226F420600243D9611A625F
:10510000DA69A16822F00C02DA61DA690A43DA612D
:10511000AEE70C2A23D10368186A20F48050D1E945
:105120000027C9681862D8691E6A20F4407040EAF6
:105130000720090320F4704089B21203014302F4EE
:10514000204226F420400243D9611A62DA69A1683C
:1051500022F44062DA61DA6942EA0122D7E71846AE
:1051600087E7022088E710B58468114324F47F4460
:1051700041EA03232343836010BD38B590F83C30E7
:10518000012B04464FF0020300F08E80012280F8CC
:105190003D3080F83C200068836823F47F4323F08F
:1051A000770383600B68602B4FD032D8402B64D0DC
:1051B00016D8202B0DD00AD833F0100109D00123C6
:1051C00084F83D30002384F83C30104638BD302B45
:1051D000F5D1826822F07002134343F0070328E000
:1051E000502BECD14A68CD68016A036A23F00103B1
:1051F0000362836921F00A0123F0F00343EA0513F7
:105200000A4383610262836823F0700343F057030B
:105210000FE0B3F5805F0DD0B3F5005F0CD0702BBD
:10522000CDD1CB68D1E90121FFF79DFF836843F021
:10523000770383600022C2E7CB68D1E90121FFF741
:1052400092FF836843F48043F3E7036A4D68C968BB
:1052500023F0100303628269036A22F4704223F090
:10526000A00343EA051342EA0132826103628368C4
:1052700023F0700343F06703DBE74A68CD68016AF7
:10528000036A23F001030362836921F00A0123F01A
:10529000F00343EA05130A4383610262836823F043
:1052A000700343F04703C4E71A468EE7036A01F030
:1052B0001F0110B501248C4023EA04030362036A32
:1052C0008A401A43026210BD08B529B990F83E30F1
:1052D000012B18D001202CE004290DD190F83F308B
:1052E000013B18BF0123002BF4D104294FF0020326
:1052F00020D180F83F3009E008290CBF90F84030F9
:1053000090F84130ECE7022380F83E30006801223B
:10531000FFF7CCFF1C4A904213D01C4B984210D090
:10532000B0F1804F14D1836803F00703062B26D118
:10533000002008BD08290CBF80F8403080F84130BB
:10534000E4E7436C904243F400434364EBD0E7E767
:105350000F4B9842E7D003F580639842E3D003F502
:1053600080639842DFD003F578439842DBD003F5A1
:1053700070539842D7D0A3F594339842D3D00368A2
:1053800043F001030360D3E7000001400004014043
:1053900000040040FFF798BF08B50346002942D13A
:1053A00090F83E0093F84220C0B20128D2B271D1E9
:1053B000012A70D1022200294BD1186883F83E20BF
:1053C00083F84220C26842F00202C26018680122DB
:1053D000FFF76CFF304B98421AD0B0F1804F17D0D6
:1053E000A3F57C43984213D003F5806398420FD015
:1053F00003F5806398420BD003F57843984207D0B9
:1054000003F57053984203D0A3F59433984204D126
:10541000836803F00703062B03D0036843F00103FE
:105420000360002037E0042905D190F83F0093F88D
:105430004320C0B2B9E708290BBF90F8400093F8A9
:10544000410093F8442093F845200CBFC0B2C0B28D
:10545000ABE7042908D1186883F83F2083F843207C
:10546000C26842F00402B0E7082908D1186883F83E
:10547000402083F84420C26842F00802A5E70C29C6
:1054800083F8412083F8452005D11868C26842F0AE
:1054900010029AE7012008BD0000014030B590F8E5
:1054A0003C30012B4FF0020332D080F83D300368CE
:1054B0000D685C689A6824F070042C435C60154C9D
:1054C000A3421AD0B3F1804F17D0A4F57C44A34275
:1054D00013D004F58064A3420FD004F58064A34286
:1054E0000BD004F57844A34207D004F57054A342CE
:1054F00003D0A4F59434A34204D1496822F0800279
:105500000A439A60012380F83D30002380F83C3044
:10551000184630BD0000014090F83C30012B1FD0F0
:10552000CB688A6823F4407313434A6823F480638A
:1055300013430A6823F4006313430A6923F4805376
:1055400013434A6923F400531343CA6923F4804385
:10555000134302685364002380F83C3018467047B8
:105560000220704770477047026802F10C0353E84D
:10557000003F23F490730C3242E8003102680029A6
:10558000F2D102F1140353E8003F23F0010302F1CA
:10559000140C4CE800310029F3D1036B012B0BD123
:1055A00002F10C0353E8003F23F0100302F10C0C4E
:1055B0004CE800310029F3D1202380F83E3000234D
:1055C000036370470268C168136923F440530B43B7
:1055D00070B51361054683680069D1680343686943
:1055E0000343E86921F4164121F00C0103430B4306
:1055F000D3605369A96923F440730B4353611F4B74
:105600009A4203D003F580639A4223D1FFF75AF9F7
:10561000EB691921B3F5004FD5E90046A0FB010164
:105620001BD1B2194FF000035B41FBF717FB64225B
:10563000B0FBF2F102FB1103DB003233B3FBF2F3F8
:1056400003F007025B0002EB011203F4F87313444A
:10565000A36070BDFFF726F9DAE7B200B30FFBF7DE
:10566000FDFA6422B0FBF2F102FB11031B0132339D
:10567000B3FBF2F303EB0113EAE700BF00100140B4
:10568000F8B504460E4617461D462268136836EAEA
:10569000030301D1002028E06B1CF7D025B1FDF7F2
:1056A00009FFC01B8542F0D2226802F10C0353E8C7
:1056B000003F23F4D0730C3242E800302168002808
:1056C000F2D101F1140353E8003F23F0010301F18B
:1056D000140040E80032002AF3D1202384F83D3042
:1056E00084F83C2084F83E300320F8BD10B5044611
:1056F00040B390F83D3003F0FF021BB980F83C2026
:10570000FDF7BAFD2268242384F83D30D36823F4E2
:105710000053D3602046FFF755FF23681A6922F42F
:1057200090421A615A6922F02A025A61DA6842F4F8
:105730000052DA6000202023206484F83D3084F891
:105740003E3010BD0120FCE7F7B5174690F83D202C
:105750000093202A04460E4649D1002945D0002F47
:1057600043D090F83C20012A41D0012280F83C200F
:1057700000252122056480F83D20FDF79BFEA168ED
:10578000009BA784B1F5805F0246E78403D12169BD
:1057900009B935460E46002184F83C10E18C89B2E7
:1057A00041B940212046FFF76BFF60B9202384F800
:1057B0003D3009E080212046CDE90023FFF760FF5E
:1057C000DDE9002310B1032003B0F0BD20684EB91D
:1057D00035F8021BC1F308014160E18C013989B23F
:1057E000E184DBE716F8011BF6E70120ECE7022075
:1057F000EAE7704770477047704708B5806B0368E9
:105800005A6990F83D10212912D1120610D50022B4
:10581000C28403F10C0252E8002F22F0C00203F10F
:105820000C0C4CE800210029F3D1202280F83D2007
:105830005B6990F83E20222A05D15B0603D5002340
:10584000C385FFF791FE036C43F010030364FFF779
:10585000D3FF08BD08B5806B0023C385C384FFF761
:10586000CBFF08BD7047806B08B5036B012B04D1DB
:10587000818D4908FFF7F6FF08BDFFF7BCFFFBE786
:1058800008B50346806B1B681B6813F4807337D11F
:10589000C385026802F10C0353E8003F23F48073D0
:1058A0000C3242E8003103680029F2D103F11402FE
:1058B00052E8002F22F0010203F1140C4CE8002101
:1058C0000029F3D103F1140252E8002F22F0400224
:1058D00003F1140C4CE800210029F3D1202280F8B8
:1058E0003E20026B012A0BD103F10C0252E8002F7B
:1058F00022F0100203F10C0C4CE800210029F3D136
:10590000036B012B03D1818DFFF7ACFF08BDFFF7BF
:1059100071FFFBE790F83E30222B07B541D181683B
:10592000836A0268B1F5805F3ED1016900293ED1EA
:105930005268C2F3080223F8022B8362C38D013B35
:105940009BB2C385002B2CD10268D16821F02001C5
:10595000D160D16821F48071D160516921F00101D9
:105960005161202280F83E20026B012A026828D172
:10597000036302F10C0353E8003F23F0100302F12C
:105980000C0C4CE800310029F3D11368DB0605D577
:1059900001911368019353680193019B818DFFF777
:1059A00061FF03B05DF804FB39B9016929B9526898
:1059B000D2B21A70836A0133BFE7526802F07F02E5
:1059C000F7E7FFF717FFECE703681A6873B51607E8
:1059D000D9685D69044608D1960668D58D0666D5F6
:1059E00002B0BDE87040FFF795BF05F0010001F47B
:1059F000907505435BD0D60705D5CD0542BF236C16
:105A000043F001032364530704D518B1236C43F01A
:105A100002032364960704D518B1236C43F00403F2
:105A20002364150707D501F0200303431EBF236C31
:105A300043F008032364236C002B32D0920604D574
:105A40008B0602D52046FFF765FF26687369226C36
:105A500003F0400302F0080253EA0205204622D078
:105A6000FFF782FD73695E0618D5226802F1140300
:105A700053E8003F23F04003143242E8003100298C
:105A8000F3D1A06B50B1724B0365FDF7A0FE40B19E
:105A9000A06B036D02B0BDE8704018472046FFF7C9
:105AA000ABFE02B070BDFFF7A7FE2564F9E7206BDF
:105AB000012840F09180D50640F18E80C80640F163
:105AC0008B80002201921A6801925A680192019A11
:105AD0005A6952064CD5A16B0A68526892B2002AE4
